:020000040800F2
:10000000386300207DB70108059F0108079F01089C
:1000100000000000000000000000000000000000E0
:10002000000000000000000000000000099F01081F
:1000300000000000000000007DA501081D740008FC
:10004000E1B70108000000000B9F0108E3B70108B9
:10005000E5B70108159F0108E7B701081F9F0108D0
:1000600000000000E9B70108EBB70108EDB701088F
:10007000EFB70108F1B70108F3B70108000000006D
:10008000F5B701082B9F0108F7B70108F9B7010878
:10009000FBB70108FDB70108359F01083F9F010824
:1000A0005B9F0108FFB7010801B801085525010849
:1000B000E59901088502000870B5B24C201D02F0D8
:1000C00085FCB14EC94D2A00310002F08AFC2000A7
:1000D0001C3002F07BFC2A00310002F082FC70BD73
:1000E00010B504001C3002F071FC2000343002F026
:1000F0006DFC20004C3002F069FC2000643002F0FE
:1001000065FC20007C3002F061FC2000943002F09D
:100110005DFC2000AC3002F059FC2000C43002F03D
:1001200055FC2000DC3002F051FC2000F43002F0DD
:100130004DFC86204000201802F048FC9220400030
:10014000201802F043FCF0204000201802F03EFC92
:10015000200010BDF8B584B0002469464C73012519
:10016000A94EB178002909D12900B570EFF31081AB
:1001700072B6B84A126981F3108872600700387845
:1001800000281FD17C70BC707C71FC703C71EE202B
:1001900040003C549D4802F073FC9DA13800DC30C7
:1001A00002F095FCAC493800F43002F090FCAA490A
:1001B0003800943002F08BFCA7493800AC3002F0D4
:1001C00086FC3D70A5490D80FA239B0096225200C3
:1001D000A021A34803F0B2F8002812D1FA20800031
:1001E00002909E480088019003A800900223B82244
:1001F000A0219B4802F092FF401E8041C043C00FE7
:1002000000E00120A7490870A7486946097B0170F2
:10021000012932D17878002829D1EFF3108072B605
:100220008C49096980F310887068081AB4498842BB
:1002300006D37C70BC707C71FC703C71747002E001
:10024000B878002819D1B6A1380000F0E3F83220C0
:1002500002F016FC707800280FD17570EFF3108053
:1002600072B67C49096980F31088716005E03078C6
:10027000002800D13570684645736846407B05B05C
:10028000F0BD000038B5EFF3108072B6714CA16874
:10029000491CA16080F31088AF4DE969202001401E
:1002A00004D02968084001D000F080F82968802037
:1002B000014004D0E969084001D000F03AF829680B
:1002C00040200140002905D0E969014002D02862A0
:1002D00000F05CF8A868C0070AD5E869400707D5B0
:1002E000802080059D490860BFF34F8FBFF36F8F5B
:1002F000EFF3108072B6A168491EA16002D080F3AE
:10030000108831BD6268514211400A011143944A7C
:100310008B0119430B04591A890E515CE160226864
:10032000914203D0802149058E4A116080F31088E4
:1003300031BD1448416B4A1C4263026B102A01D341
:10034000C26901E002001C32834B515C9962416B2F
:10035000C06A814215D1EFF31080012181F310882A
:10036000196880229143196080F31088EFF31080A0
:10037000012181F31088196840220A431A6080F332
:100380001088704760550020FBA00108EFF3108033
:10039000012181F3108870490A6840239A430A605A
:1003A00080F31088012070490870704738B56F4895
:1003B0000068C0B203F020FDC1B26D4803F025FD16
:1003C000EFF3108072B623494A686A4B1C68D54324
:1003D000254005D04D6825434D6022401A6001E05C
:1003E0000121197180F3108831BD0000A45800204C
:1003F00010B55D4C02E00A2002F042FB2078002894
:10040000F9D00020207010BD4C5700208813000048
:100410003939000038B5544C0025656320001C3084
:1004200002F055FBA069102801D3606800E0201D90
:10043000656105702570EFF31080012181F310884C
:1004400045490A68802313430B6080F31088FFF747
:10045000CFFF31BD140B0020DC8F0108F8580020BD
:10046000D053002038B5404C0025656320001C3077
:1004700003F0E9FCA069102801D3606800E0201DAA
:1004800065610570EFF31080012181F31088324916
:100490000A68802313430B6080F310882570FFF7F0
:1004A000A7FF31BDAC5700201759002070B51600CA
:1004B0002D4D00246C6328001C3003F0C4FC002385
:1004C000DB430022310028001C3003F0C7FCA86980
:1004D000102801D3686800E0281D6C6104702C703E
:1004E000EFF31080012181F310881B490A688023F3
:1004F00013430B6080F31088FFF77AFF70BD000094
:10050000E980000010B500240022194803F0D9FC4E
:100510000021C943884200D00124200010BD000002
:1005200041540D00F8B50E00170000250E4C0022B6
:10053000201D03F0C6FC0021C94388420AD03900BF
:1005400032698218201D03F0BCFC0021C943884297
:1005500000D001252800F2BD004C004080E100E001
:100560001CA4010804ED00E060550020244C00406C
:10057000645500208C570020F8B5944CA544060023
:1005800093A1684603F0ABFC7078002801D000F01E
:1005900032FC9049FFA8483003F0A1FC0100300074
:1005A000FFF7B0FF040000220121FFA8483003F04C
:1005B000A6FC002C59D18849FFA8303003F08FFCED
:1005C00001003000FFF79EFF040000220121FFA878
:1005D000303003F094FC002C4FD18049FFA8183034
:1005E00003F07DFC01003000FFF78CFF04000022C7
:1005F0000121FFA8183003F082FC002C3DD178497E
:10060000FFA803F06CFC01003000FFF77BFF040043
:1006100000220121FFA803F072FC002C33D17149A4
:10062000F9A803F05CFC01003000FFF76BFF040049
:1006300000220121F9A803F062FC002C29D16A49AB
:10064000F3A803F04CFC01003000FFF75BFF00282B
:1006500025D16649EDA803F042FCEDA93000FFF773
:1006600051FF00281DD001242CE00120B07060490A
:100670003000FFF7CFFE01F0E2F85E493000FFF7EF
:10068000C9FE01F0DCF85C493000FFF7C3FE01F061
:10069000D6F85A493000FFF7BDFE01F0D0F801242A
:1006A00015E05749E7A803F01AFCE7A93000FFF767
:1006B00029FF441EA441E443E40F00220121E7A8DE
:1006C00003F01DFC00220121EDA803F018FC00221C
:1006D0000121F3A803F013FC002C31D14949E1A812
:1006E00003F0FDFB484D2900DBA803F0F8FB0200F6
:1006F000E1A93000FFF716FF040000220121DBA86A
:1007000003F0FDFB00220121E1A803F0F8FB002C1F
:100710001ED13E49D5A803F0E2FB01003000FFF7EF
:10072000F1FE00282BD1DB4C2100CFA803F0D7FB32
:10073000CFA93000FFF7E6FE002822D0012487E091
:1007400001207071D4493000FFF764FE01F077F8A2
:100750003100FFA8603001F062FAFFA9603130007B
:10076000DC3003F0E4FB00220121FFA8603003F03D
:10077000C6FBCA493000FFF74DFE01F060F80124C6
:100780006BE021005831C9A803F0A9FBC9A93000CA
:10079000FFF7B8FE002801D0012454E0D549C3A8D2
:1007A00003F09DFBC3A93000FFF7ACFE002801D089
:1007B000012443E0D049BDA803F091FBBDA930005E
:1007C000FFF7A0FE002823D0012432E018FAFFFF33
:1007D000000000002C89010840890108588901089F
:1007E0006C8901088C890108AC890108C889010855
:1007F000388901084C89010880890108A08901080D
:10080000E4890108088A0108188A01082C8A01086D
:10081000BA49B7A803F063FBB7A93000FFF772FE2F
:10082000441EA441E443E40F00220121B7A803F0D1
:1008300066FB00220121BDA803F061FB002201211B
:10084000C3A803F05CFB00220121C9A803F057FBF9
:1008500000220121CFA803F052FB00220121D5A8DC
:1008600003F04DFB002C00D0E2E0DD49B1A803F01D
:1008700036FB01003000FFF745FE04000022012195
:10088000B1A803F03CFB002C00D0D7E0D549ABA8C1
:1008900003F025FB01003000FFF734FE002800D0F4
:1008A000D2E0D149A5A803F01AFBD0A19FA803F07C
:1008B00016FB9FAAA5A93000FFF734FE441EA441F1
:1008C000E443E40F002201219FA803F018FB00225B
:1008D0000121A5A803F013FB00220121ABA803F01E
:1008E0000EFB002C00D0B1E0C14999A803F0F7FA43
:1008F000BEA193A803F0F3FA020099A93000FFF714
:1009000011FE04000022012193A803F0F8FA00224E
:10091000012199A803F0F3FA002C00D09CE0B5491E
:100920008DA803F0DCFA01003000FFF7EBFD0400B6
:10093000002201218DA803F0E2FA002C00D091E002
:10094000D74987A803F0CBFAD64981A803F0C7FAA4
:10095000020087A93000FFF7E5FD04000022012115
:1009600081A803F0CCFA0022012187A803F0C7FA7E
:10097000002C7DD1CC497BA803F0B1FA01003000F6
:10098000FFF7C0FD0400002201217BA803F0B7FAA5
:10099000002C73D1DB4975A803F0A1FA01003000E7
:1009A000FFF7B0FD04000022012175A803F0A7FAAB
:1009B000002C69D1D4496FA803F091FA290069A8E5
:1009C00003F08DFA02006FA93000FFF7ABFD0400C1
:1009D0000022012169A803F092FA002201216FA8E8
:1009E00003F08DFA002C5BD12A4D2C00B03421008D
:1009F00063A803F074FAC5495DA803F070FA020019
:100A000063A93000FFF78EFD00285FD1210057A8B1
:100A100003F065FABE4F390051A803F060FA51AAFD
:100A200057A93000FFF77EFD002851D001248CE04B
:100A3000B8493000FFF7EEFC00F001FFB24930008A
:100A4000FFF7E8FC00F0FBFE012445E7B249300067
:100A5000FFF7E0FC00F0F3FEB0493000FFF7DAFCEE
:100A600000F0EDFEAE493000FFF7D4FC00F0E7FEE9
:100A7000AC493000FFF7CEFC00F0E1FEAA4930009F
:100A8000FFF7C8FC00F0DBFEA8493000FFF7C2FC0E
:100A900000F0D5FED0950108008A0108208A0108DF
:100AA0003100FFA8603000F047FFFFA9603130003F
:100AB000AC3003F03CFA00220121FFA8603003F0C3
:100AC0001EFA300001F052FB00F0B9FE012446E0AE
:100AD000974C21004BA803F002FA8C4945A803F07B
:100AE000FEF945AA4BA93000FFF71CFD002807D0EE
:100AF000012420E0408A0108608A01087C8A0108FC
:100B000021003FA803F0EBF9390039A803F0E7F919
:100B100039AA3FA93000FFF705FD441EA441E44374
:100B2000E40F0022012139A803F0E9F90022012194
:100B30003FA803F0E4F90022012145A803F0DFF902
:100B4000002201214BA803F0DAF90022012151A86B
:100B500003F0D5F90022012157A803F0D0F90022B3
:100B600001215DA803F0CBF90022012163A803F065
:100B7000C6F9002C40D12900F83133A803F0AFF9B1
:100B800063492DA803F0ABF9020033A93000FFF749
:100B9000C9FC0400002201212DA803F0B0F90022B5
:100BA000012133A803F0ABF9002C00D084E06149A7
:100BB00027A803F094F901003000FFF7A3FC0028F8
:100BC00000D090E05C4921A803F089F921A9300008
:100BD000FFF798FC002800D187E00124F4E000BF73
:100BE000A48A0108C48A0108E08A01080D0A0000ED
:100BF0000C8B01083C8B01083100FFA8603000F02D
:100C0000D9FEFFA96031684603F091F90022012165
:100C1000FFA8603003F073F9002248A1684603F092
:100C2000A8F9F0600021C943884201D000BF10E05C
:100C30003100FFA8603000F0BDFEFFA96031300038
:100C4000F43003F074F900220121FFA8603003F0B2
:100C500056F9092106A803F0B1F939480268394963
:100C600006A803F0CBF984B286204000371836A1DD
:100C7000380001F02CFF002C09DD06A82500040037
:100C80002178380003F0C1F8641C6D1EF8D10120F2
:100C900070702E488169102908D3416807E000BFB1
:100CA000608B01086C8B0108808B0108011D0022FC
:100CB00042610A7000F0C4FD3100FFA8603000F00E
:100CC000C9FDFFA960313000943003F030F90022F3
:100CD0000121FFA8603003F012F90B493000FFF743
:100CE00099FB00F0ACFD012473E0E3491BA803F07D
:100CF000F6F81BA93000FFF705FC002828D00124D6
:100D00005DE000BFA08B0108B88A0108C88B01080C
:100D1000D08B0108988A0108FC8A01082C8B0108F5
:100D2000508B0108748B0108948B0108B48B010867
:100D3000A4960108E08B0108F08B01080700000071
:100D4000CC570020D88B010800000000605500201F
:100D5000CA4915A803F0C3F815A93000FFF7D2FB64
:100D6000002801D0012425E08E20400029180FA87A
:100D700003F0B5F80FA93000FFF7C4FB002801D03D
:100D8000012412E0A2204000291809A803F0A7F8C6
:100D900009A93000FFF7B6FB441EA441E443E40F69
:100DA0000022012109A803F0AAF8002201210FA8BE
:100DB00003F0A5F80022012115A803F0A0F80022F5
:100DC00001211BA803F09BF80022012121A803F0B8
:100DD00096F80022012127A803F091F8002C01D1F8
:100DE00000F02DFD0120B07100207070B0703070E7
:100DF000002200F025FDA249FFA80C3003F06FF897
:100E0000A0A1FFA8FF30D53003F069F80200FFA9C8
:100E10000C313000FFF786FB002801D0012436E0BA
:100E20009949FCA803F05BF896A42100F6A803F00A
:100E300056F8F6AAFCA93000FFF774FB002801D091
:100E400001241AE09149F0A803F049F82100EAA82A
:100E500003F045F8EAAAF0A93000FFF763FB441E4F
:100E6000A441E443E40F00220121EAA803F047F87B
:100E700000220121F0A803F042F800220121F6A887
:100E800003F03DF800220121FCA803F038F800220D
:100E90000121FFA8FF30D53003F031F800220121F5
:100EA000FFA80C3003F02BF8002C00D0B7E07849F5
:100EB000E4A803F014F8DF49FFA8FF30BD3003F0C9
:100EC0000EF80200E4A93000FFF72CFB040000221A
:100ED0000121FFA8FF30BD3003F011F800220121ED
:100EE000E4A803F00CF8002C00D0DDE06949DEA88E
:100EF00002F0F5FF684D2900FFA8FF30A53002F091
:100F0000EEFF0200DEA93000FFF70CFB0400002218
:100F10000121FFA8FF30A53002F0F1FF00220121DE
:100F2000DEA802F0ECFF002C00D0C1E05B49D8A89D
:100F300002F0D5FF2900FFA8FF308D3002F0CFFF6F
:100F40000200D8A93000FFF7EDFA040000220121C9
:100F5000FFA8FF308D3002F0D2FF00220121D8A877
:100F600002F0CDFF002C00D0A6E04D49D2A802F03F
:100F7000B6FFB049FFA8FF30753002F0B0FF0200A5
:100F8000D2A93000FFF7CEFA040000220121FFA809
:100F9000FF30753002F0B3FF00220121D2A802F029
:100FA000AEFF002C00D087E03E49FFA8FF305D3047
:100FB00002F095FF01003000FFF7A4FA04000022C0
:100FC0000121FFA8FF305D3002F099FF002C78D19D
:100FD000DF4DB62040002918CCA802F080FF29A7D9
:100FE0003900FFA8FF30453002F079FF0200CCA99C
:100FF0003000FFF797FA002867D12900B031C6A862
:1010000002F06DFF3900C0A802F069FFC0AAC6A9AE
:101010003000FFF787FA002859D0012490E0310012
:1010200006A800F015FE06A93000643002F07FFF2C
:101030000022012106A802F062FFD3A13000643033
:1010400002F0FCFFD14906A802F049FF31006431EB
:101050000CA803F02BF8020006A93000FFF726FACF
:10106000002201210CA802F04AFF0022012106A85B
:1010700002F045FFE3E300BF0C8C0108248C01085B
:10108000408C01080D0A0000508C0108608C01089A
:101090007C8C0108948C0108A08C0108A88C0108A4
:1010A000C48C0108D08C0108300000F017FEC6E3A4
:1010B000300000F0A1FFC2E3D2493000FFF7AAF9E7
:1010C000BDE3300001F052F8B9E3012442E0CA2048
:1010D00040002918BAA802F002FF3900B4A802F0B3
:1010E000FEFEB4AABAA93000FFF71CFA002801D00E
:1010F00001241BE02900D431AEA802F0F0FE390033
:10110000A8A802F0ECFEA8AAAEA93000FFF70AFAE0
:10111000441EA441E443E40F00220121A8A802F0E8
:10112000EEFE00220121AEA802F0E9FE002201211C
:10113000B4A802F0E4FE00220121BAA802F0DFFE0A
:1011400000220121C0A802F0DAFE00220121C6A877
:1011500002F0D5FE00220121FFA8FF30453002F049
:10116000CEFE00220121CCA802F0C9FE002C00D046
:10117000D4E0B049A2A802F0B2FE2E49FFA8FF3089
:101180002D3002F0ACFE0200A2A93000FFF7CAF930
:10119000040000220121FFA8FF302D3002F0AFFE35
:1011A00000220121A2A802F0AAFE002C00D006E134
:1011B000DE2040002918FFA8FF30153002F08FFE16
:1011C00001003000FFF79EF9040000220121FFA872
:1011D000FF30153002F093FE002C00D002E1F22027
:1011E00040002918FFA8FC3002F079FE0100300011
:1011F000FFF788F9040000220121FFA8FC3002F06B
:101200007EFE002C00D0F2E08B49FFA8E43002F013
:1012100066FE01003000FFF775F90400002201218D
:10122000FFA8E43002F06BFE002C00D0ECE0834914
:1012300002E000BF188A0108FFA8CC3002F04FFE80
:1012400001003000FFF75EF9040000220121FFA831
:10125000CC3002F054FE002C00D0CDE078499CA8A0
:1012600002F03DFE7749FFA8B43002F038FE0200DC
:101270009CA93000FFF756F9040000220121FFA8C5
:10128000B43002F03CFE002201219CA802F037FE9F
:10129000002C00D0B8E06C49FFA89C3002F01FFE83
:1012A00001003000FFF72EF9040000220121FFA801
:1012B0009C3002F024FE002C00D0AAE06349FFA875
:1012C000843002F00CFE01003000FFF71BF904002F
:1012D00000220121FFA8843002F011FE002C00D072
:1012E000A3E0822080002918FFA86C3002F0F7FDEF
:1012F00001003000FFF706F9002800D0ACE08B2099
:101300008000291896A802F0EAFD96A93000FFF7A0
:10131000F9F8002800D1A1E001246EE1310006A80F
:1013200000F048FB06A9684602F001FE00220121F8
:1013300006A802F0E4FD002245A1684602F019FE6D
:10134000F0600021C943884204D000BF10E000BF14
:10135000D0950108310006A800F02CFB06A930004A
:10136000F43002F0E4FD0022012106A802F0C7FDDE
:10137000F079002802D0012036490EE0307A0028AA
:1013800006D00120D04908E00D000000708C010853
:10139000707A002802D00120CC4908700020F0713A
:1013A00030727072CA498A69102A01D34A6800E013
:1013B0000A1D48611070D0490870002240E23100D7
:1013C00006A800F02CFC06A93000DC3002F0AFFDCE
:1013D0000022012106A802F092FD0020C6490870F3
:1013E00000222DE2C5493000FFF714F827E2C44976
:1013F0003000FFF70FF822E2C2493000FFF70AF889
:101400001DE200BFB48C0108BF493000FFF702F8AD
:1014100015E2AF488169102901D3426800E0021D3E
:1014200000214161117000220AE2D3493000FEF729
:10143000F1FF04E2088A0108108D0108348D0108CB
:10144000648D0108808D01088C8D0108A88D01082C
:10145000070000003E5900200124D3E094208000C2
:10146000291890A802F03BFD90A93000FFF74AF838
:10147000002801D00124BBE09D20800029188AA803
:1014800002F02DFD8AA93000FFF73CF8002801D0BA
:101490000124A8E0A6208000291884A802F01FFDDE
:1014A00084A93000FFF72EF8002801D0012495E030
:1014B000AF20800029187EA802F011FD7EA930001F
:1014C000FFF720F8002801D0012482E0B820800036
:1014D000291878A802F003FD78A93000FFF712F868
:1014E000002801D001246FE0CE4972A802F0F7FC79
:1014F00072A93000FFF706F8002801D001245EE051
:10150000C120800029186CA802F0E9FC6CA9300009
:10151000FEF7F8FF002801D001244BE0CA2080002C
:10152000291866A802F0DBFC66A93000FEF7EAFF86
:10153000002801D0012438E0D5208000291860A8B7
:1015400002F0CDFC60A93000FEF7DCFF002801D0DE
:10155000012425E0E020800029185AA802F0BFFCF1
:101560005AA93000FEF7CEFF002801D0012412E076
:10157000EB208000291854A802F0B1FC54A93000D7
:10158000FEF7C0FF441EA441E443E40F0022012102
:1015900054A802F0B4FC002201215AA802F0AFFCCA
:1015A0000022012160A802F0AAFC0022012166A805
:1015B00002F0A5FC002201216CA802F0A0FC002290
:1015C000012172A802F09BFC0022012178A802F000
:1015D00096FC002201217EA802F091FC002201214C
:1015E00084A802F08CFC002201218AA802F087FC6A
:1015F0000022012190A802F082FC0022012196A87D
:1016000002F07DFC00220121FFA86C3002F077FC83
:10161000002C4ED18E49FFA8543002F060FC01002E
:101620003000FEF76FFF040000220121FFA85430B4
:1016300002F065FC002C41D1BC494EA802F04FFCE1
:10164000BB49FFA83C3002F04AFC02004EA9300022
:10165000FEF768FF040000220121FFA83C3002F0E1
:101660004EFC002201214EA802F049FC002C31D191
:10167000B04948A802F033FC3900FFA8243002F03A
:101680002EFC020048A93000FEF74CFF00283DD197
:10169000C04942A802F023FC39003CA802F01FFC1C
:1016A0003CAA42A93000FEF73DFF002830D00124BB
:1016B00093E0B9493000FEF7ADFEC0E0B749300015
:1016C000FEF7A8FEBBE000BF3C5900203D590020BA
:1016D00060550020300000F0CFFDB148816910292D
:1016E00001D3426800E0021D0021416111700248EF
:1016F00001700022A4E000BF1C590020E48C010806
:10170000008D0108548D0108248D010801246EE02C
:10171000A44936A802F0E3FB390030A802F0DFFB51
:1017200030AA36A93000FEF7FDFE002801D00124C2
:1017300049E09D492AA802F0D2FB390024A802F012
:10174000CEFB24AA2AA93000FEF7ECFE002801D027
:1017500001242EE095491EA802F0C1FB390018A80B
:1017600002F0BDFB18AA1EA93000FEF7DBFE002820
:1017700004D0012413E000BFBC8D01088C4912A8DD
:1017800002F0ADFB12A93000FEF7BCFE441EA441DE
:10179000E443E40F0022012112A802F0B0FB002272
:1017A000012118A802F0ABFB002201211EA802F0C3
:1017B000A6FB0022012124A802F0A1FB00220121A6
:1017C0002AA802F09CFB0022012130A802F097FB1E
:1017D0000022012136A802F092FB002201213CA840
:1017E00002F08DFB0022012142A802F088FB0022BA
:1017F0000121FFA8243002F082FB0022012148A829
:1018000002F07DFB002C1AD0EE2040003018017849
:10181000002902D0082907D00FE008210170B4493F
:1018200007E000BFD88D010809210170F620800073
:1018300029183000FEF7EEFD01E00D2101700022B5
:101840000121684602F05BFBAA488544F0BD000018
:10185000048E0108F8B58CB007000D00A6A102F0B7
:101860003EFBA64928001C3001F031F94C4CEA6AD5
:1018700029001C31201D02F024FBE96A4018286170
:101880000026F643B0424ED09D4928001C3001F09E
:101890001EF92A6929001C31201D02F012FB686123
:1018A000B04240D02869A169102901D3616800E0E5
:1018B000211D091806A802F012FB02002900684643
:1018C00000F0D1FF69462800343002F030FB0022DE
:1018D0000121684602F013FB0022012106A802F054
:1018E0000EFB00201AE02800343002F0F3FB005D0C
:1018F0002B2808D0EC682800343002F0EBFB005DA8
:1019000030380A2808D2EC682800343002F0E2FBB4
:10191000015D380002F079FAE868401CE860EC6884
:10192000686C8442DFD30DB0F0BD00002C8E01083E
:10193000808D0108408E0108F8B505000C006EA1ED
:1019400002F0CDFAC14920001C3001F0C0F8144F5C
:10195000002221001C31381D02F0B3FAE16A401860
:1019600020610021C94388420AD1F1BD2669701C5B
:101970002061381D02F0AEFB815D280002F045FABF
:101980002669381D02F0A6FB805D02F0A8FB012845
:10199000ECDAF1BD5C8E0108F88D0108208E01089B
:1019A00060550020788E0108948E0108B08E0108E1
:1019B000CC8E0108F8B58CB006000D004EA102F0E7
:1019C0008EFA4E4928001C3001F081F84D4CEA6A2D
:1019D00029001C31201D02F074FAE96A40182861C0
:1019E0000027FF43B8420FD1B74928001C3001F04F
:1019F0006EF8EA6A29001C31201D02F062FAE96AD9
:101A000040182861B84271D0B04928001C3001F05C
:101A10005EF82A6929001C31201D02F052FA686123
:101A2000B8421ED02869A169102901D3616800E07D
:101A3000211D091806A802F052FA02002900684682
:101A400000F062F86946300002F071FA00220121CC
:101A5000684602F054FA0022012106A802F04FFA6B
:101A600044E0274928001C3001F031F82A69290098
:101A70001C31201D02F025FA6861B84236D0286971
:101A8000A169102901D3616800E0211D091806A889
:101A900002F025FA02002900684600F0E4FE6946DB
:101AA0002800343002F043FA00220121684602F097
:101AB00026FA0022012106A802F021FA2900343179
:101AC00006A802F0F3FA02002900684600F01CF8AC
:101AD0006946300002F02BFA00220121684602F02C
:101AE0000EFA0022012106A802F009FA0DB0F0BD9D
:101AF000E88E0108EC05000000000000608F01087E
:101B00006C8F010860550020F8B507000C00150027
:101B10006FA102F0E4F96FA120001C3000F0D7FFA4
:101B2000002221001C31280002F0CBF9E0600021E6
:101B3000C943884203D1F1BDE068401CE060E6681B
:101B4000280002F0C7FA805D02F0C9FA0028F3DC31
:101B5000E668280002F0BEFA805D02F0C9FA0028AB
:101B6000EADCE668280002F0B5FA805D02F0C9FA06
:101B70000028E1D1E668280002F0ACFA805D303838
:101B80000A2808D3E668280002F0A4FA805D02F073
:101B9000AFFA00280BDDE668280002F09BFA815DB1
:101BA000380002F032F9E068401CE060E2E7E668E5
:101BB000280002F08FFA805D2E28ECD03D0045A76A
:101BC00000223900280002F0D4F9E0600146002626
:101BD000F643B14202D0280002F09CFA00223900FC
:101BE000280002F0C6F9E0600146B14202D02800A8
:101BF00002F090FA002238A1280002F0BAF9E06061
:101C00000446B4420AD0BDA6300002F08FFA00901C
:101C1000330001222100280002F08FFAF1BD38B50F
:101C200005002BA102F05BF9B54C02230F22211D08
:101C3000280002F013F9A0690F2801D9606800E0BC
:101C4000201D00216161017031BD0000748F010809
:101C500070B506000C001EA102F041F9A949200050
:101C60001C3000F034FFA64D002221001C31281D3D
:101C700002F027F9E16A4018E0600021C943884278
:101C800021D0A1A120001C3000F021FFE26821003A
:101C90001C31281D02F015F9E16A401820619BA152
:101CA00020001C3000F013FF226921001C31281D88
:101CB00002F007F92169431AA36160612269291DB5
:101CC000300002F0CBF870BD8C8F0108848F0108C2
:101CD00000000000200000002C000000FEB5050000
:101CE0008BA421007C3000F0F2FE21002800C430DB
:101CF00000F0EDFE9220400028180190210000F035
:101D0000E6FE844928001C3000F0E1FE7C4C0022F5
:101D100029001C31201D02F0D4F8E96A401828611E
:101D20000027FF43B84200D1E6E0A169102901D3A2
:101D3000616800E0211D095C2B291AD12800C430FC
:101D400002F063F82869401C28610AE02E69701CC3
:101D50002861201D02F0BEF9815D2800C43002F028
:101D600054F82E69201D02F0B5F9805D30380A283C
:101D7000ECD366A128001C3000F0A9FE2A692900D6
:101D80001C31201D02F09DF8E96A40182861B84214
:101D90000AD1B1E02E69701C2861201D02F09AF969
:101DA000815D019802F031F82E69201D02F092F950
:101DB000805D30380A28EDD32E69201D02F08AF9A3
:101DC000805D02F095F900280EDD2869401C28612D
:101DD000F2E72E69701C2861201D02F07BF9815DFD
:101DE00028007C3002F011F82E69201D02F072F9F3
:101DF000805D02F074F90028EBDC8E2040002E1884
:101E000037681038281802F007FA00970300B26903
:101E10000021019802F005FA00280FD16F4928002F
:101E20007C3002F021FA00280DD16D4928007C3069
:101E300002F01AFA002808D00D204CE0A069102802
:101E400056D3606855E00C2045E0664928007C3098
:101E500002F00AFA002801D00F203CE06249280075
:101E60007C3002F001FA002805D060480078002894
:101E700001D102202FE05EA128007C3002F0F4F9AD
:101E8000002801D0012026E05AA128007C3002F071
:101E9000EBF9002801D00E201DE0B1A128007C3014
:101EA00002F0E2F9002805D050480078002801D15E
:101EB000032010E0AB4928007C3002F0D5F900285F
:101EC00001D0042007E0A8A128007C3002F0CCF962
:101ED000002806D0152069460870B54802F0D6F9EA
:101EE0000AE0A069102801D3606802E0201D00E02C
:101EF000201D00216161017003B0F0BD2E000000C3
:101F000060550020988F0108222C00000D0A000067
:101F100000000000A48F010870B592B004000025F5
:101F2000A4A63100684601F0DAFFE0204000205C02
:101F3000401E032822D9001F06280BD9C01F0328E2
:101F40001CD9001F012840D9801E022802D9C01EBA
:101F500014D018E0984E30782B2804D12B216846F5
:101F600001F053FF0125E8B2315C080030380A283F
:101F700009D2684601F049FF6D1CF4E72100C43125
:101F8000684601F060FF8DA1684602F057F88C4961
:101F900006A801F0A4FF69460CA802F087F8020029
:101FA00006A92000FEF782FA002201210CA801F008
:101FB000A6FF0022012106A801F0A1FF00220121B5
:101FC000684601F09CFF12B070BD3100F020400067
:101FD000201800F07CFD0022F1E70000B48F01081A
:101FE000BC8F0108C48F0108CC8F01082E59002036
:101FF0005253540053494D00F8B586B00400F02008
:10200000400025186F49280000F061FD6EA7684662
:1020100000F0DCFC8E2040002658380002F086F8E4
:102020003118049EB1420CD30598884209D0012290
:10203000684602F061F9002803D03100684602F0DA
:10204000C6F90026F64333000022862040002118FE
:10205000684601F003FF3900684601F0EFFF3300E6
:1020600000226946280001F0F9FE0022012168469D
:1020700001F045FFE0204000205C401E142812D8EB
:1020800001A1095C8F4400BF6C747C84164C5054D1
:102090008C949CA4ACB4BC4848586064C4004B49C0
:1020A000280001F0CBFF4AA1280001F0C7FF49A199
:1020B000280001F0C3FF2900684601F0F7FF010086
:1020C0002000FEF7CFF900220121684601F017FF3A
:1020D00007B0F0BD4049E3E74049E1E74049DFE7A9
:1020E000200000F027FBDEE7C849D9E7200000F018
:1020F0004DFBD8E7200000F092F9D4E7200000F073
:1021000099F9D0E7200000F0A0F9CCE7200000F01A
:10211000B1F9C8E7200000F0C5F9C4E7200000F0DD
:1021200003FAC0E7200000F027FABCE7200000F027
:102130004FFAB8E7200000F06CFAB4E7200000F096
:10214000A7FAB0E7200000F0B7FAACE7200000F0F3
:1021500041FBA8E780B5C349FEF75CF901BD00006B
:102160004F464600D48F01085745540038B5040047
:102170002500AC35BC49280002F076F8002805D1CE
:10218000BA49280002F070F8002801D0B84906E0EA
:10219000C1A1280002F068F8002803D0BF49200040
:1021A000FEF738F931BD80B5BD49FEF733F901BD01
:1021B000C455002000000000E0560020220D000061
:1021C000948C0108F08F01080D0A0000509001085E
:1021D0000D0000001A000000689001087C900108C2
:1021E0008C90010870B51D001400032C01DA6D1EDF
:1021F000C91CC9B2A8B208182904890C4618642160
:10220000A8B202F007F980B2361AC8214900A8B274
:1022100002F000F980B235186001001B0A300C2171
:1022200002F0F5F82818072102F0F1F8481CC0B2B6
:1022300070BDF8B584B000240125FA23DB00D21864
:102240006B461A8001AE03900F00684603883A007F
:10225000E9B20398FFF7C6FF072802D161B27554AF
:10226000641C6D1C202DF0DB64B23019401E00216F
:102270004056C0B205B0F0BDFEB5AA498A69102A21
:1022800001D3496800E0091D00909E225200851884
:102290000800133028600098883284180800133032
:1022A00002F0BBF9E0752868C01C286002F0B5F99F
:1022B00060752868C01C286002F0AFF9A075286816
:1022C000C01C286002F0A9F920702868C01C286092
:1022D00002F0A3F960702868C01C286002F09DF924
:1022E000A0700098EC214900451801A8290004229B
:1022F00002F0B4F901999E4804F03AF99D4800783B
:102300002075B2480068CA21416253274762002203
:102310002100AE4804F079FC002801D004F026FF2B
:1023200000222900A94804F002FD002801D004F091
:102330001DFFA6480568FF266E62607D401E0128CD
:1023400058D9801E05D0C01F29D0401E012851D960
:1023500059E0E07DFA21C900421803210098FFF7F7
:1023600068FFA17D88424ED3E07DFA21C900421862
:1023700003210098FFF75DFFA17D884203D12078FB
:10238000032840DB24E0E07DFA21C9004218032144
:102390000098FFF74EFFA17D814234D22AE0E07D14
:1023A000FA21C90042180A210098FFF742FFA17DD7
:1023B000884228D3E07DFA21C90042180A210098FA
:1023C000FFF737FFA17D884209D1207803281ADD65
:1023D0006078002817D1A078002814D10AE0E07DA9
:1023E000FA21C90042180A210098FFF722FFA17DB7
:1023F000814208D2754CCA2068626F62200004F0E6
:1024000083FD2068466203B0F0BD0000A091010882
:1024100080B5E02252008154FFF77EFD01BD10B56A
:102420000400BE49F0204000201801F007FE012002
:10243000E07110BD10B50400CF49F0204000201815
:1024400001F0FCFD0120207210BD10B50400CC4944
:10245000F0204000201801F0F1FD0120607210BD55
:1024600000000000008A0108048F0108108F010895
:10247000188F010838B50400A020400025188D48A9
:1024800000214256BF49280001F0B8FD2900F02084
:102490004000201897E00000554D43002C8F0108A4
:1024A000408F0108F8B50400A020400026189C4881
:1024B000C1780091437882789A49300001F09EFDFE
:1024C000F020400027183100380001F0B7FD964D8C
:1024D0009648006804F084FE04F08EFE00222B0073
:1024E00004F0A3FE02000B009149300001F086FDCC
:1024F0003100380001F0A2FDA048006804F070FE31
:1025000004F07AFE00222B0004F08FFE02000B0084
:10251000C249300001F072FD3100380001F08EFD3B
:10252000F1BD00006055002038B50400A020400037
:1025300025189548C1780091437882787949280018
:1025400001F05CFDF020400024182900200001F07B
:1025500075FD7648006804F043FE04F04DFE00224D
:10256000714B04F062FE02000B00714926E000008E
:10257000980500204959002038B50400A0204000EB
:1025800025186748C178009143788278654928000A
:1025900001F034FDF020400024182900200001F053
:1025A0004DFD7648006804F01BFE04F025FE002275
:1025B0005D4B04F03AFE02000B009849280001F040
:1025C0001DFD2900200001F039FD31BD9855002086
:1025D00038B50400A020400025189148C17800912A
:1025E000437882788F49280001F008FDF0204000F0
:1025F00024182900200001F021FD8B48006804F018
:10260000FBFD0022894B04F010FE02000B008849FC
:10261000D4E7B0B50400A02040002518424F8548FB
:10262000006804F0DDFD04F0E7FD00223B0004F04B
:10263000FCFD02000B008049280001F0DFFCF020C7
:10264000400024182900200001F0F8FC7B480068B5
:1026500004F0C6FD04F0D0FD00223B0004F0E5FDCF
:1026600002000B007649280001F0C8FC2900200078
:1026700001F0E4FC7348006804F0B2FD04F0BCFD16
:1026800000223B0004F0D1FD02000B00BD493DE0FB
:1026900038B50400F02040002518BB49280001F09F
:1026A000CDFC0023DB4300222100F431280001F09F
:1026B000D5FB31BD45590020B0B50400A020400035
:1026C0002518194FB148006804F08AFD04F094FD04
:1026D00000223B0004F0A9FD02000B00AC492800D9
:1026E00001F08CFCF020400024182900200001F0AB
:1026F000A5FCA848006804F073FD04F07DFD0022ED
:102700003B0004F092FD02000B00A349280001F0F9
:1027100075FC2900200001F091FCB0BDFC8F010880
:1027200020580020A0900108000059400C580020BB
:10273000C090010870B50400F020400026189749A9
:10274000300001F07BFCA02040002518944C22783A
:102750009449280001F052FC2900300001F06EFC81
:102760006278002A07D09049280001F047FC290030
:10277000300001F063FC70BD74A9010810580020FE
:10278000189001082C9001081C58002070B5050015
:10279000F02040002C188549200001F04FFC84A156
:1027A000200001F04BFCA02040002D18814800685B
:1027B00004F09CFD06B28048006804F097FD02B268
:1027C00033007E49280001F019FC2900200001F0A7
:1027D00035FC70BDF8B5F02149004418784E7949B0
:1027E0000978012913D1A0214900451871480068D2
:1027F00004F07CFD07B27048006804F077FD02B277
:102800003B003100280001F0F9FB290001E0310014
:102810002431200001F012FCF1BD0000D490010829
:102820002C5800200CAA0108EC57002000408F40D3
:10283000E8900108F857002030AA0108FC57002052
:10284000089101080058002008000200303A0A2AC6
:1028500001D2D03103E04138062802D2C931C8B2D2
:10286000704700207047F0B58BB005000E001700D0
:1028700055A101F034FB02A8052101F09DFB02AC3B
:10288000049501960097002723E0E021820C0A437B
:102890002270020B114361703F2280218309134093
:1028A00080251D43A57002401143E1700020207176
:1028B00002A905A801F013FB0023DB43002201005D
:1028C000049801F0CBFA0022012105A801F017FBC2
:1028D0003F1D00980069C01E874250D2009801F049
:1028E000F9FBC15D0198FFF7AFFF0500009801F00B
:1028F000F1FB2D03401CC15D0198FFF7A5FF00020D
:102900002D18009801F0E6FB801CC15D0198FFF7CF
:102910009BFF0600009801F0DDFB31016D18C01C23
:10292000C15D0198FFF790FF2818802803D220701E
:1029300000206070BCE78021090188420BD2810928
:10294000C0220A4322708006800E802101436170FC
:102950000020A070ACE74901884296D2010BE0222A
:102960000A4322703F2280218309134080251D43A2
:10297000657002401143A1700020E07098E70BB031
:10298000F0BD00001C9101082C91010804580020A2
:102990003C910108085800205C9101086C910108E5
:1029A0000A59002088910108949101084490010877
:1029B0000D0A0000905800208C58002030A8010813
:1029C000C8A101081A5900200000000010B5040039
:1029D00004F0A9FC00220021200001F090FA200060
:1029E00010BD80B503000800190004F0ADFC02BD65
:1029F00010B535E080B52E48002181800721817116
:102A00002C49C8612C4A2D49411804F0E5FC01BD50
:102A10004268514211400A011143294A8B0119436E
:102A20000B04591A890E515C026891420BD0C160A7
:102A300080214905234A116062B600BF72B6016861
:102A4000C2689142F8D170471A490A6A92008A58BE
:102A50001060C86A800008580068CA6A0A62704735
:102A6000040010001A000023A380A0711148A3796C
:102A70009B00C450200004F0AFFC200010BD0000FB
:102A800010B5EFF3108472B60A490A6A9300CB5866
:102A90009880486A0123934098434862886A0028D6
:102AA00003D108002030FFF7B3FF84F3108810BD76
:102AB00058450020F40A0020C92A00080808000030
:102AC0001CA4010804ED00E005F05CFDFCE770B516
:102AD00004000D00280001F029FB06002900200059
:102AE00005F06CFD002809D0200001F0F3FA330056
:102AF0002A1A2100200005F073FD70BD002231006C
:102B0000200001F0F9FB00280AD0200001F0E2FAD1
:102B10003200290001F0A2FD3100200001F057FC35
:102B2000200070BD38B5040001D1012032BD250060
:102B300040356878002803D12870200005F0DBFDBF
:102B40002420687020680168012291430160606858
:102B50008949014020680161216888488A680240EB
:102B60008A60E1680129A16801D1C24301E08422A1
:102B700012020A4321688A60E168022921684A68D2
:102B800003D180231B01134301E07D4B13404B60B5
:102B900021684A687B4B13434B602168CA68104028
:102BA000C860206961690143A06900020843216887
:102BB000C860E069216A01432068016020680168FB
:102BC00001220A43026000206860202169702063AE
:102BD000A87032BDFBB505001700403041782029B0
:102BE00000D0C4E04021695C012900D1BFE001218F
:102BF000017005F0FFFD0600286880242402816929
:102C000021401CD032001921280001F05DF8002875
:102C100000D083E005F0EEFD801B1928ECD9286870
:102C200080690440E8D028004030202142680A43EF
:102C30004260417000210022827001706EE02C0021
:102C40003500694609892122230040335A70102239
:102C5000230040339A700022230040335A60676299
:102C60006185626369468F88089E618DFF2904D95A
:102C7000FF21218580235B0405E0618D2185802370
:102C80009B04002911D0616A09788162606A401C46
:102C900060629A48618D09186185218D0A18228524
:102CA00097480090521CD2B201E09548009039003C
:102CB000200001F088F80BE0FF2020852068B9058E
:102CC000890D42688F4B13400B438F491943416074
:102CD000608D002830D02A003100200000F042FF33
:102CE00000281BD1606A007821688862606A401CF5
:102CF00060628248618D09186185218D08182085E0
:102D0000618D0029E4D00004E2D100953300002257
:102D10008021200000F0E7FE002801D0012027E0FC
:102D2000608DFF28C8D8608D20850020009080230A
:102D30009B04228DD2B2BAE731002A00200000F0B5
:102D400042FF01000ED120202268D0612268536822
:102D50006E4D1D405560220040325070002000230F
:102D600093701070481E8041C043C00F00E00220E5
:102D700003B0F0BD00000000FFFFFFF0FF7FFFFF8A
:102D8000FFF7FFFF00800002FBB505001700403091
:102D90004178202900D0AEE04021695C012900D1B2
:102DA000A9E00121017005F025FD06008024240220
:102DB0002868806920401BD032001921280000F0CB
:102DC00083FF002873D105F015FD801B1928EDD96C
:102DD000286880690440E9D02800403020214268FA
:102DE0000A434260417000210022827001705EE05F
:102DF0002C003500684600892221220040325170A3
:102E00001021220040329170002122004032516096
:102E10006762608561633E4869468F88089E618D60
:102E2000FF2906D9FF212185009080235B04FF2222
:102E300006E0618D2185009080239B04228DD2B213
:102E40003900200000F0BFFF0BE0FF202085206844
:102E5000B905890D42682B4B13400B432A4919438E
:102E60004160608D00282BD02A003100200000F046
:102E7000D6FE00281BD12068406A616A0870606A2B
:102E8000401C60621D49208D40182085628D5118BC
:102E90006185618D0029E4D00004E2D10095330002
:102EA00000228021200000F01EFE002801D0012019
:102EB00022E0608DFF28C8D8608D20850020BAE709
:102EC00031002A00200000F07EFE01000ED12020FB
:102ED0002268D061226853680C4D1D405560220065
:102EE000403250700020002393701070481E8041C3
:102EF000C043C00F00E0022003B0F0BDFFFF0000A0
:102F000000200080009C00FC0000FF0100E800FEA3
:102F100000240080FEB582B00500403041782029B1
:102F200000D0F6E00A99002902D00B9F390003D1A6
:102F3000802189004160C0E04021695C012900D105
:102F4000E7E00121017005F055FC06008024240211
:102F50002868806920401CD032001921280000F028
:102F6000B3FE002800D0A8E005F044FC801B19281F
:102F7000ECD9286880690440E8D02800403020213E
:102F800042680A4342604170002100228270017051
:102F900093E02C0001962120210040314870402010
:102FA00021004031887000202100403148600A989B
:102FB0006062678500206063802676045648009032
:102FC00033006846028AD2B20189200000F0FBFE7D
:102FD000019A0C99200000F0C5FD00281BD168461D
:102FE0008589008A012809D0280A21688862019A07
:102FF0000C99200000F0B6FD00280CD1EDB220683D
:103000008562019800900C9B00228021200000F036
:103010006AFD002803D00020402160544DE0608DFF
:10302000FF280FD9FF202085002000903300FF22C9
:1030300068460189200000F0C6FE684607890C9E9C
:10304000019D07E0608D2085002000907300228D97
:10305000D2B2EDE72A003100200000F083FD002805
:103060002BD1606A007821688862606A401C6062C7
:10307000AC48618D09186185218D08182085618D06
:10308000002928D0000426D1009533000022802199
:10309000200000F028FD00280FD1608DFF280ED9F8
:1030A000FF2020852068B905890D42689E4B13409A
:1030B0000B439E49194341600DE001202AE0608DD9
:1030C00020850020009080239B04228DD2B23900FD
:1030D000200000F078FE608D0028BBD131002A006E
:1030E000200000F070FD01000ED120202268D06188
:1030F000226853688E4D1D4055602200403250704A
:103100000020002393701070481E8041C043C00F00
:1031100000E0022005B0F0BD00200080FEB582B0C6
:10312000050040304178202900D0F7E00A990029B5
:1031300002D00B9F390003D1802189004160C1E09A
:103140004021695C012900D1E8E00121017005F00E
:1031500051FB0600802424022868806920401CD08E
:1031600032001921280000F0AFFD002800D0A9E0AE
:1031700005F040FB801B1928ECD9286880690440C1
:10318000E8D028004030202142680A434260417064
:10319000002100228270017094E02C0001960C9EA8
:1031A00022202100403148704020210040318870A9
:1031B00000202100403148600A9860626785002045
:1031C00060635C48009000236846028AD2B201899D
:1031D000200000F0F8FD019A3100200000F0C2FC50
:1031E00000281BD168468589008A012809D0280A51
:1031F00021688862019A3100200000F0B3FC0028A9
:103200000CD1EDB220688562019800903300002255
:103210004021200000F067FC002803D0002040215E
:1032200060544FE04448618DFF290ED9FF2121856C
:10323000009080235B04FF2268460189200000F093
:10324000C2FD68460789019D07E0618D21850090D8
:1032500080239B04228DD2B2EEE70095330000223A
:103260000421200000F03FFC00282BD12068406A98
:10327000616A0870606A401C60622A49208D4018AB
:103280002085628D51186185618D002928D0000448
:1032900026D10095330000228021200000F023FC7D
:1032A00000280FD1608DFF280ED9FF2020852068CF
:1032B000B905890D42681C4B13400B431B49194348
:1032C00041600DE001202AE0608D20850020009003
:1032D00080239B04228DD2B23900200000F073FDC0
:1032E000608D0028B9D131002A00200000F06BFC6D
:1032F00001000ED120202268D061226853680C4D55
:103300001D40556022004032507000200023937011
:103310001070481E8041C043C00F00E0022005B07D
:10332000F0BD0000FFFF0000009C00FC0000FF015A
:1033300000E800FE0020008000240080F8B586B080
:1033400000240194040040346478202C00D085E0EF
:103350000468A469240400D580E04024045D012CA5
:103360007CD00124402544552424050040356C7050
:103370000024050040356C608905890D394C0C43EB
:103380000494394C0C4303940400059202930027E3
:10339000FF43E068012801D1039800E00498216808
:1033A000486005F027FA226893699906C90F936966
:1033B000DA06D20F029D060006E0206882699106B7
:1033C000C90F8069C206D20F0A4309D1BD42F4D0A9
:1033D00005F010FA801B854234D3002DEDD131E089
:1033E0000295102520688069284015D00096029B20
:1033F00000222021200000F076FB00282CD120683C
:10340000C56120202168C8610198401C0190019885
:1034100005998842BDD315E0029B00960022202129
:10342000200000F060FB010007D120202268D0615D
:1034300022004032507000201070481E8041C0436E
:10344000C00F0CE020004030202120224270426852
:103450001143416000210170012000E0022007B00B
:10346000F0BD0000002800020020000202689169FF
:103470001268436B002B00D1704780B5984701BD9F
:1034800070B501688A690B461B688024640022427B
:1034900006D01D0604D5456C01262E434664CC613A
:1034A000A1000A4207D01C0605D5446C0825254317
:1034B00045640468E16149080A4007D01A0605D549
:1034C000426C0223134343640268D161416C0B22B6
:1034D0000A4001D000F038FA70BD406C704738B532
:1034E0000400E06A4023E35C012B01D1022032BDDD
:1034F0002500403501232B702023194205D01340AD
:1035000003D0200000F010F976E0102319422DD0EE
:103510001A422BD0628D002A18D16A78282A06D147
:103520005A05904203D1200000F0DCF964E069788C
:10353000292908D13249884205D02068C36120007A
:1035400000F0ADFA55E02068C36155E02168CB6119
:10355000696804220A436A60002802D0190588427B
:103560004AD16968200000F0EFF945E004231942D0
:1035700019D0134017D0618D00290DD02168496AF8
:10358000626A1170616A491C61621E49228D52187B
:103590002285628D51186185618D00292CD11849D1
:1035A000884229D025E00823194205D0134003D0D2
:1035B000200000F029F81FE0022319401CD013401E
:1035C0001AD0618D00290ED0606A00782168886267
:1035D000606A401C60620B48618D09186185218D0D
:1035E0000818208508E080214904884201D000287D
:1035F00002D1200000F050F80020287032BD0000F9
:103600000000FFFFFFFF0000F8B503001C0040347E
:103610001D68607828210140282938D1A869C00395
:10362000C10FFE20AA69170C0740AA689205920DE7
:10363000EE683040DE68022E1CD106263740BC46BC
:10364000D7093E40B4450BD1A068401CA060A068DB
:10365000022820D10020A0600826EE61207012E030
:103660002A461268B825AA431D682A6000222270E3
:10367000020008E028460068B82290432A461060FD
:10368000002020703A00180005F0BAF8F1BD0820BB
:10369000E86100202070F1BD38B501680A680300B8
:1036A0004033002400259D70550402D50A681C4D46
:1036B00003E0120403D50A681A4D15400D605978CD
:1036C000292914D1282128225A702122026342225A
:1036D000D2435D782940282901D0F222D2430168E3
:1036E0000D682A400A601C7005F08BF831BD5978CE
:1036F0002A2913D1282128225A7022220263442227
:10370000D2435D782940282901D0F422D2430168B0
:103710000D682A400A601C7005F074F831BD000085
:10372000FFBFFFFFFF7FFFFFF0B583B004002068FD
:10373000006802900091E06A0190250040356878A9
:1037400020272168CF610026212801D0292807D110
:10375000687820680168FA229143016021200AE01C
:10376000222801D02A2808D1687820680168FC2224
:10377000914301602220206309E0282807D168785E
:10378000687820680168FE22914301602663206802
:103790004168BA020A43426020684168694A0A40A7
:1037A0004260200000F07BF90298400406D52068B2
:1037B0000168AC4A0A400260A06B08E0029800046D
:1037C0000AD520680168A84A0A400260E06B002818
:1037D00002D000684068608504200099014012D042
:1037E0000099814300912168496A626A1170616A97
:1037F000491C6162218D002905D09C4A89182185C8
:10380000618D89186185618D002902D06968014345
:1038100069601021009A0A4033D0029A0A4030D0E1
:10382000628D002A1ED16878282808D101984A059F
:10383000904204D10099200000F054F821E068780B
:1038400029280CD101989D4A904208D02068C16176
:10385000200000F024F92000FFF71EFF11E020688F
:10386000C1610EE02268D16169680843686001980F
:10387000002802D0F904884203D16968200000F0D2
:1038800063F80020A8706663686800280BD0696838
:10389000200000F059F86878282821D100992000EC
:1038A00000F020F81CE0E06A844988420BD0200038
:1038B000FFF7F2FE8148E0626F7026632E702000F1
:1038C00004F0A1FF0CE0687822286F7026632E7048
:1038D00003D1200004F096FF02E0200004F091FFE5
:1038E00003B0F0BD38B5754AC2620022026303001E
:1038F000403320245C7000249C70426304242140E7
:1039000012D00168496A456A2970416A491C4162BE
:10391000018D002908D0554D49190185418D49195E
:10392000418559680C435C605978597801680C6886
:10393000FE25AC430C6010210468E1611A7004F0AC
:1039400062FF31BD00E800FE70B50400250040357F
:10395000687800260022AA70584AE2620022628536
:103960006A6811436960282803D0292801D02A28D1
:1039700013D1462028216A780A40282A00D0F62050
:103980006A780A40282A00D0F62022681368834308
:10399000136069704A4860631FE06878687820683F
:1039A0000168FE2291430160200000F078F86878F9
:1039B000602811D020202021697021688A69024086
:1039C0000AD010228B69134004D0CA6169680422AE
:1039D0000A436A602168C8616663206BA16B002995
:1039E0001BD0112801D0212817D120680168490473
:1039F00003D501681B4A0A400260A06B04F046FF31
:103A000001282BD02F48A16B88632E70A06B04F087
:103A1000FBFE002825D0A06B1DE0E16B00291DD026
:103A2000122801D0222819D120680168090403D581
:103A300001680D4A0A400260E06B04F027FF01288C
:103A40000CD02048E16B88632E70E06B04F0DCFE44
:103A5000002806D0E06B816B884770BD200000F025
:103A600007F870BDFFBFFFFFFF7FFFFFFFFF0000F4
:103A700010B50100303100224123C35C602B08D116
:103A80002023412403550A604021425404F001FFE1
:103A900010BD0A604021425403F050FA10BD006886
:103AA0008169890701D500218162012182690A406B
:103AB00002D1826911438161704700000000FFFF5D
:103AC000DF340008C93A000880B5806A816B00299C
:103AD00001D000228A63C16B002901D000228A63D1
:103AE000FFF7C6FF01BDF8B50092002405000F00E6
:103AF0001E00286880693840B84201D1012000E0EA
:103B00000020009988422BD1069A3100280000F04D
:103B1000DBF8002810D10020C0438642E9D004F031
:103B200069FE0699401A864208D2286880693840A2
:103B3000B84206D1012005E00120F2BD002ED8D107
:103B4000F3E7002000998842D3D12800403020219B
:103B500042680A4342604170002181700470EBE7C3
:103B60000020F2BDF8B5022604000D001700206801
:103B70008069304025D13A002900200000F0A4F8E7
:103B800000280DD10020C0438542F0D004F032FE61
:103B9000C01B854206D2206880693040E7D104E02E
:103BA0000120F2BD002DE2D1F5E7200040302021B8
:103BB00042680A4342604170002100228270017015
:103BC000EEE70020F2BDF8B5202504000E00170036
:103BD00020688069284020D13A003100200000F0A0
:103BE00073F8002801D00120F2BD04F003FEC01BD1
:103BF000864204D2206880692840E9D102E0002E84
:103C0000E6D1F7E720004030416829434160457024
:103C10000021002282700170E5E70020F2BDFEB5B0
:103C200000240600403607000091019215E0706004
:103C300004F0E0FD0199401A009981423ED2200033
:103C40000BD138688069054007D120207168014395
:103C5000716070700020307001240425386880691C
:103C600028402ED120002CD1019A0099380000F074
:103C70002BF8002800D00124396888698006D7D540
:103C80002000D5D100208A692A4003D03A8D002A2D
:103C900000D000248A69D206C9D51022CA61756095
:103CA00020223968CA6139684B68514C1C404C600D
:103CB00072700021B17030700124B9E70029CCD1B5
:103CC000BDE7200003B0F0BDFEB50600002430685B
:103CD0008369002517001022134040D0C261009173
:103CE00031E0200033D100980021C94388422AD016
:103CF00004F080FDC01B0099814201D3002922D12C
:103D00003068416832004032927883691B040BD5D9
:103D10008023DB01194007D1202A05D041680B43DD
:103D2000436004F067FD07000196202601980068B3
:103D30008069304006D104F05DFDC01B1A28F5D320
:103D400020250124019E316888698006C9D5280094
:103D5000002C01D12022CA610425054301243068CA
:103D6000816980225200114202D001242543C261A0
:103D70009000014205D02A00082515433268D06121
:103D800001244008014006D0290002250D43316876
:103D9000C861012401E0200012D03000FFF77FFE4F
:103DA00030684168124A0A40426030004030416841
:103DB0000D43456020214170002100228270017076
:103DC000200003B0F0BDF0B4049C00684568660DA7
:103DD000084F3743BD438905890D12040A43134335
:103DE0001C436100490829434160F0BC7047000052
:103DF00000E800FEFF63FF0310B5040004F07FFD40
:103E000001002000C96A884710BDF8B505000C0004
:103E10002F690020C043C01B012801D804F078FDA1
:103E20007F1C00223900280000F066FA002808D024
:103E30002E69280000F04EF984553900280000F062
:103E4000C6FA2800F2BD10B504008C4204D000234D
:103E5000DB43002204F0C4FB200010BDF8B50E00C7
:103E600015003169A94201D204F052FD07004C1B34
:103E70009C4200D91C0038690021C943091A8C42B0
:103E800001D304F045FD002C19D000190090002248
:103E90000146380000F030FA002810D0300000F061
:103EA000BBF94519380000F015F9220029003B69DB
:103EB000C01800F0D3FB0099380000F088FA3800F1
:103EC000F2BD70B5040008001500066900F0A4F901
:103ED00033002A000100200004F01FFD70BD38B53A
:103EE00004000D0003F01FFA00220021200000F062
:103EF00006F829002000FEF7EAFD200032BD70B56B
:103F00000400150000290CD060690F2809D9266823
:103F1000002D03D03100200000F0A0FB300004F0A1
:103F200031FD0F20606125610020605570BD38B5FE
:103F300005000C00A5421AD000220121FFF7DFFF87
:103F40006069102806D22269521C2100280004F062
:103F500021FD03E02068286000202060206928619E
:103F600060696861002200212000FFF7C8FF280077
:103F700032BD70B504000E001500300000F0D6F818
:103F800003002A003100200004F0C7FC70BD026865
:103F9000531C0360117070471206130A1A43130C66
:103FA0001A4300BF094205D083070FD00270401C9E
:103FB000491EF9D1704700000022F3E7002205E016
:103FC0001206130A1A43130C1A4300BF13001039C8
:103FD00006D330B41400150010393CC0FCD230BCFC
:103FE000490700D30CC000D504C0890002D3028069
:103FF000801C002900D5027070472E000CB418B543
:1040000083B004000A0006A80290019400200090EA
:1040100002AB01A9084878441E3004F0CFFC00210F
:10402000019A1170002801D40198001B04B0019975
:1040300010BC03B0084700BF57FFFFFFF8B50400EE
:104040000D00280000F072F806002900200004F09E
:10405000B5FA002809D0200000F03CF833002A1AF5
:1040600021002000FFF7FAFEF2BD20690021C943BC
:10407000091A8E4201D304F04BFC002E14D087198C
:1040800000223900200000F037F900280CD0200071
:1040900000F020F8320029002369C01800F0DEFA91
:1040A0003900200000F093F92000F2BD38B504007B
:1040B0000D00002020616061002200212000FFF738
:1040C0001EFF0023DB4300222900200004F088FAB1
:1040D000200032BD4169102900D30068704710B537
:1040E000040004F00CFC010020000969884710BDA1
:1040F00010B5040004F003FC01002000096A8847A1
:1041000010BD10B5040004F0FAFB01002000C969DD
:10411000884710BD10B504002069884201D204F020
:10412000F7FB200000F053F9200010BD431C01787C
:10413000401C0942FBD1C01A7047FBB582B0050094
:1041400014000A9F194604F039FA00280DD02800FF
:10415000FFF7C0FF01970499081A00902B00220076
:104160000399280005F0E9FB54E028690399884287
:1041700001D204F0CDFB411AA14200D20C00001B79
:104180000021C943C91B884201D304F0C1FB039934
:10419000401A0190A7420FD22800FFF79BFF0600AC
:1041A0002800FFF797FF019A039971180919039BDB
:1041B000C018C01904F0EEFB2000384329D028694C
:1041C000C019001B009000220146280000F094F85E
:1041D00000281ED0BC420FD22800FFF77BFF06004C
:1041E0002800FFF777FF019A039971180919039BBB
:1041F000C018C01904F0CEFB2800FFF76BFF3A008F
:104200000499039BC01800F029FA0099280000F0D7
:10421000DEF8280005B0F0BD4169102900D3006820
:104220007047F8B50F000169B94201D204F070FB84
:104230001400C91BA14200D20C00069D0093260069
:10424000AC4200D92E00FFF7E7FF32000099C019F9
:1042500005F052FC002806D1AC4202D20020C04337
:10426000F2BD00D00120F2BD38B504000D002800D9
:10427000FFF75CFF00902B00226900212000FFF770
:10428000D0FF401E8041C00F32BD4300BAB5EFF3EE
:10429000108772B6174D04000EE02968012088408F
:1042A000216801432160696881436960A86800282A
:1042B00002D12800FEF7ACFB207A4142C9B2E029C6
:1042C000EBD020280FD000980078A17A6118C8722E
:1042D000A07A401CA072207A401C2072A07A20286C
:1042E00001D10020A072201D05F016FC87F3108874
:1042F000B3BD00BF140B0020FEB50D000021C94363
:104300008D4201D104F004FB04006769AF4245D23D
:104310002069019000900F262E438E4201D12E007D
:1043200011E03000032100F075F8790888420AD2C4
:10433000606940080121C943091AB94201D33E18F6
:1043400001E00126F643701C01D1002702E005F0D0
:1043500039FC07000098002809D06069102801D3B3
:10436000216800E02100009A380000F077F900226F
:1043700001212000FFF7C3FD2760102E01D338462E
:1043800000E020006661009921610021019A8154BA
:10439000681E8041C043C00F03B0F0BD002A0BD09F
:1043A000102D09D220692A00854200D9020001217E
:1043B0002000FFF7A4FDEBE7002DE9D1102F01D37A
:1043C000216800E02100002020610870E4E74269D4
:1043D000102A01D3026800E002000161002050545D
:1043E0007047F446002804D4494200F013F84042D4
:1043F00060474042002905D45FD000F00BF84042EE
:1044000049426047494200F005F849426047034687
:104410000B43E6D40022030A8B420BD203098B42E2
:1044200019D243088B422ED2411A00D20146524182
:1044300010467047FF2209023FD012068B4205D377
:10444000121209028B4201D31212090203098B4294
:1044500019D300E0090AC3098B4201D3CB01C01A6A
:10446000524183098B4201D38B01C01A5241430947
:104470008B4201D34B01C01A524103098B4201D335
:104480000B01C01A5241C3088B4201D3CB00C01AA2
:10449000524183088B4201D38B00C01A524143081A
:1044A0008B4201D34B00C01A5241884200D3401ABC
:1044B0005241CFD201461046704708B505F096FB31
:1044C00008BD7047FCB587B00C001500002B01D06B
:1044D000002119600390064600E0761C3078FFF753
:1044E00007FE0028F9D1300001782D2901D02B29B1
:1044F00003D16A461170401C02E02B216A461170FC
:104500000194002D03D4012D01D0252D04DB002CB6
:1045100055D00398206052E0002D0ADD102D16D1F1
:104520000178302913D1417820220A43782A0ED10C
:104530000AE00178302901D00A2508E041782022DC
:104540000A43782A02D11025801C00E00825069035
:1045500000E0401C01783029FBD0002405902B4A54
:104560007A44A83228326B465A700295049F05009F
:104570000494264E7E44943608E0049469464978B3
:10458000471AFFB202984443E4196D1C287805F0DD
:104590002EFB029A01003000283005F031FB002884
:1045A000EBD1029938002F002500049C069ABA42EC
:1045B00007D10198002802D00398019908600020D3
:1045C00022E0059ABA1A735CD21A002A11D405DCCB
:1045D000281A03D3FFF71EFFA0420AD005F025FBDF
:1045E0000898002802D00120089908600025ED43B2
:1045F00005E0684600782D2801D168420500019841
:10460000002800D00760280009B0F0BD0C5C010054
:1046100080B50023FFF756FF02BD80B5FFE70A22F1
:104620000021FFF7F5FF02BD70B4103A03D378C93B
:10463000103A78C0FBD2530701D318C918C001D56E
:1046400008C908C0D20704D30B880380891C801CCA
:10465000002A01D50B78037070BC70478B0701D11D
:104660008307E1D0124205D00B78491C0370401C2F
:10467000521EF9D170477047F8B50700A025ED0527
:104680004B480078012805D100228021090228002A
:1046900005F098FB474E00228021C900300005F04C
:1046A00091FB00220421300005F08CFB00228021C8
:1046B0004900280005F086FB00243F484470012291
:1046C000411C032005F002FCE22040003D182C6054
:1046D0006C603A4804600020394908600021394A7A
:1046E00003C2FF20AE3038188174C174364A11708D
:1046F00001748173C173354A1170354A1170354A9E
:104700001170C170344A1170344A1170344A1170FA
:10471000344A1170344A1170344A1170344A11709D
:1047200041718171334A117081708172C172324A54
:104730001170017301704170304A11704173304A39
:10474000117041722F490C702F490C702F490C7059
:104750002F490C702F490C702F490C702F490C7089
:104760002F4804702F48006802F03AFD01002E48DF
:1047700005F0C4FB2D4908602D480178E1221201A3
:104780005143427813019A1A9200891880780818C8
:10479000A8600122D103300005F014FB0120254A56
:1047A0001070254908702548006825490860F1BD4A
:1047B00024590020000400505C5700204C58002071
:1047C00044580020B85700204A5900202E59002094
:1047D0002C5900202D5900204E5900204F590020FF
:1047E0004D590020305900203159002047590020F0
:1047F00032590020335900205059002037590020E9
:104800003959002041590020405900201F590020EB
:104810001D590020205900201E5900202159002038
:10482000225900201458002000007A4448580020E3
:10483000A45600203F5900205A590020D857002084
:1048400050580020F8B50400C24805F0C2FB00280B
:1048500036D0C1480078012806D100228021090203
:10486000A020C00505F0AEFABC480078002800D0B2
:104870009AE2200002F007F80024D2490C700120CF
:10488000D1490870D14D00228102280005F09AFA22
:1048900000220421280005F095FA00228021490019
:1048A000A020C00505F08EFAC94844700122411CC1
:1048B000032005F00BFBC748006805F05CFCF1BD68
:1048C000C54805F086FB00281DD0C44800780028A4
:1048D00000D069E2D42040002018417A002909D193
:1048E000017B002900D05FE201214172200001F02C
:1048F0000FFEF1BD00210022427201730421B34872
:1049000005F060FAF1BDD24805F063FB002850D0F5
:10491000EFF3108172B6CF48006981F31088D4217B
:10492000490061180860AD480078002800D03BE2DB
:104930008A4A1078002829D1C7480078002815D065
:10494000022813D000D32FE2012010700020C8717C
:104950009F48417802220A4342700122411C0320F1
:1049600005F0B4FA200001F011FCF1BDBB4800785D
:10497000012807D0022800D016E2B94800780128A3
:1049800000D011E2200000F075FAF1BD0020107097
:1049900088710120C8718E484178FD220A4042701A
:1049A0000122411C032005F091FA200001F02AFCAD
:1049B000F1BDD14805F00DFB002868D0EFF3108061
:1049C00072B6A449096980F31088D42040002018E9
:1049D0000160CA490978012900D1E5E17F490978D8
:1049E000002900D0E0E19C490A78012A00D1DBE1EE
:1049F0009A4A1378012B00D0D6E1C14B1B68002BDB
:104A000000D0D1E1BF4B1B78002B00D0CCE10223BA
:104A100013700025C5750878022801D1BA4800E056
:104A2000BA480068BA490860200001F083F8200005
:104A300001F029FF63480570012563490D70644C3E
:104A400060782021014361700122611C032005F080
:104A50003DFA60781021014361700122611C03203E
:104A600005F034FA6078FB21014061700122611C7D
:104A7000032005F02BFA60780821014361700122C0
:104A8000611C032005F022FAC8480570F1BDC84832
:104A900005F09FFA002863D0EFF3108072B66D49DD
:104AA000096980F31088D420400021509348007891
:104AB000012800D178E149480078002800D073E14E
:104AC00065480078012800D16EE16448007802282A
:104AD00000D069E18A4F3868002803D0B5480078D3
:104AE000012804D12000216889688847F1BDAF4EB4
:104AF00030780838022800D856E1354D68782021F2
:104B0000014369700122691C032005F0DFF9687810
:104B10001021014369700122691C032005F0D6F9B8
:104B20006878FB21014069700122691C032005F0AF
:104B3000CDF968780821014369700122691C0320BE
:104B400005F0C4F9002038606C490870012030700D
:104B5000CDE000BF380B002024590020315900203F
:104B6000954805F036FA00283AD0EFF3108072B677
:104B70003849096980F31088D42040002150174833
:104B80000078002800D00FE133480078012800D1D8
:104B90000AE132480078022800D005E15848006850
:104BA000002800DC00E155490878002800D0FBE02F
:104BB0000120087007217D4A1170804A1170A949AF
:104BC0000870F1BD595900205859002000040050C8
:104BD0005C57002034580020500B00202E59002034
:104BE000A14805F0F6F9002840D0EFF3108072B626
:104BF0001849096980F31088D420400021503F48AB
:104C00000078012800D1CFE098480078002800D033
:104C1000CAE0114D2878012800D1C5E00F4800787E
:104C2000022800D0C0E0AF48417804220A43427015
:104C30000122411C032005F049F9314801682A7816
:104C4000002A02D0022A0DD04BE0304A0BE000BF10
:104C5000E00B0020140B00204A5900205A59002074
:104C600051590020284A126889183AE0804805F016
:104C7000B0F900284ED0EFF3108072B69A49096956
:104C800080F31088D420400021501C48007801286F
:104C900000D189E075480078002800D084E0934D69
:104CA0002878012800D17FE09148007802287BD144
:104CB0008C48417804220A4342700122411C03209F
:104CC00005F004F90E4801682A78002A02D0022A69
:104CD00002D006E00D4A00E00B4A126893009A18D1
:104CE0008918844A12688A4200D2110001602000AB
:104CF00000F020FFF1BD00BFF80B0020325900206A
:104D00004C58002035590020E0570020DC57002087
:104D100050580020784805F05CF9002821D0EFF3C6
:104D2000108072B67049096980F31088D420400061
:104D300021504E480078002836D16C480078002871
:104D400001D0022830D16A480078012805D0022815
:104D50002AD16A480078012826D1200000F030F8D6
:104D6000F1BD674D280005F034F9002806D06548EC
:104D70000178002918D101210170F1BD280005F04A
:104D800043F9002810D06048017800290CD1012196
:104D90000170EFF3108072B65349096980F31088EF
:104DA000D420400020184165F1BD00005C5900206E
:104DB000100C00204E590020280C00205D590020C6
:104DC00052490968012900DA704770B5AB49097882
:104DD000002946D1AA4E05003078002827D1434843
:104DE000007801283DD00124A6490C703470FF21C1
:104DF000AE316C54A4480078A44908700122110215
:104E0000A020C00504F0DEFF364841780C43447012
:104E10000122411C032005F059F8EFF3108072B60F
:104E20003149096980F310889948016070BD0022FA
:104E300080214900A020C00504F0C4FF2948417822
:104E4000FE220A4042700122411C032005F03EF878
:104E5000002030708B490870FF21AE31691808704E
:104E6000487070BD38590020400C00202E59002099
:104E7000580C002025490968012900DA7047F8B567
:104E80007F49097800292BD1070001247B490C7048
:104E9000D72040003D182C7000266E70380001F0BD
:104EA000F2FC7C4806707C490C701148007801289F
:104EB00009D17A480078012805D1A878002802D1C4
:104EC000AC70774804700748417802220A43427068
:104ED0000122411C032004F0F9FF380001F056F9CB
:104EE000F1BD00005C570020140B00204A5900203F
:104EF0005A59002054580020700C002037590020C7
:104F0000880C00201F590020405900204C580020D8
:104F100010B56449097808295FD0092900D182E0D9
:104F200061490978002900D0A7E0FF21B831441871
:104F30005A490978002924D1F421490041185B4AD3
:104F40002378002B11D1EFF3108072B6126980F331
:104F500010880A605648002141700122411C03203C
:104F600004F0B4FF0120207010BDEFF3108372B67F
:104F7000126983F310880968511A4E4A91427CD312
:104F800078E0002020704C480078002825D1484C5B
:104F900060782021014361700122611C032004F02C
:104FA00095FF60781021014361700122611C03208C
:104FB00004F08CFF60780821014361700122611CBC
:104FC000032004F083FF60783C490968012902DB73
:104FD0000421014320E0FB211DE0354C60782021B5
:104FE000014361700122611C032004F06FFF6078AF
:104FF000EF21014061700122611C032004F066FF73
:105000006078FB21014061700122611C032004F0E3
:105010005DFF6078F721014061700122611C03206F
:1050200004F054FF10BDF42149004118FF22B832AA
:1050300084181E4A6378002B11D1EFF3108072B6EA
:10504000126980F310884A601948002141700122DA
:10505000411C032004F03AFF0120607010BDEFF303
:10506000108372B6126983F310884968511A114A85
:10507000914202D301688968884710BD31590020E8
:10508000475900204659002019590020485900204E
:105090003858002059590020585900204B590020F9
:1050A0002F5900205C59002050590020140B00207B
:1050B0005C570020B80B0000325900204C580020EB
:1050C000FEB504006F4870490978002934D1017891
:1050D000C91F032930D9FF21BA3161188A79130019
:1050E0000CD0042A0ED0082A10D00C2A12D0102A74
:1050F00014D0142A16D0182A18D01BE001220270EE
:105100008A7917E0022202708A7913E00322027082
:105110008A790FE0042202708A790BE0052202707E
:105120008A7907E0062202708A7903E00122027080
:10513000002200E0521C8A710078401E092800D924
:105140009AE002A1095C49008F4400BF050E1720B8
:1051500029323B44848E4D484D490978002901D1BC
:105160004C4987E04C4985E048484949097800297D
:1051700001D148497EE049497CE0444844490978E6
:10518000002901D1434975E0454973E03F48404952
:105190000978002901D13F496CE042496AE03B4867
:1051A0003B490978002901D13A4963E03E4961E071
:1051B000364837490978002901D136495AE03B4938
:1051C00058E0324832490978002901D1314951E08B
:1051D00037494FE0FC20400026183F382718354D4E
:1051E000387800280DD13449284805F02DF8EFF320
:1051F000108072B6296980F3108831600120387000
:1052000020E0EFF3108072B6296980F310883068CF
:10521000081A2A49884215D32948006801F0E0FF9E
:1052200005002848008801F0CBFF0100280004F0A9
:1052300065FE01F0E1FF00900191234A23491348E4
:1052400005F002F82248026822480168200000F0B8
:105250008DFA11E00D4D2049280004F0F5FF1F499B
:10526000280005F037F807E009480078002803D146
:105270000849064804F0E8FF2000FFF749FE03B0A4
:10528000F0BD00005C590020505900208C510020D6
:105290004B590020F49C01086C9D0108809D010879
:1052A000949D0108A89D0108BC9D0108D09D01089E
:1052B000E49D0108140B0020F89D0108B80B0000C4
:1052C000DC5700200E590020E09C0108A89C010832
:1052D0004C580020445800200C9E0108209E0108D4
:1052E000F8B58AB0B5490978002907D0B44CB5495A
:1052F000200004F0A9FFB449200007E20890FF2134
:10530000AE3144182078012802D1BB4841780FE023
:10531000A078012814D1B9480078002810D1B648E7
:105320004178B74A1278012A02D102220A4301E0E9
:10533000FD220A4042700122411C032004F0C6FDF8
:105340006078002802D0AC48417812E0A0780128AB
:1053500017D1BC480078002813D1BB480078012839
:105360000FD0A5484178A64A1278012A01D10A43F4
:1053700001E0FE220A4042700122411C032004F099
:10538000A5FDB6480078012803D0022800D12DE100
:10539000BEE1AC480078012806D1B8480278B84987
:1053A000874804F051FFCCE0B6480078002802D0CE
:1053B000012825D0C5E0B44805F00DF8002801D03B
:1053C000B2A100E0B2A1B3484078002801D0B2A257
:1053D00000E0AFA2B1480078002801D0B0A300E0FF
:1053E000ABA3B048B04CE578059565780495A478F2
:1053F000039402910192417800910278AB4962E0F6
:10540000AB480078002801D0C74997E0C74800782A
:10541000002801D0C64991E08B480078002803D0CD
:10542000022854D017D38CE0C248006801F0D8FE9F
:105430000400C148008801F0C3FE0100200004F010
:105440005DFD01F0D9FE00900191BC4ABC495C4869
:1054500004F0FAFE75E0914D2878002801D090A361
:1054600000E08BA38F4F78788F4C904EE1780491B9
:1054700061780391A1780291019000903A7831000F
:10548000B048FEF7BBFDB04908802878002801D05D
:1054900083A500E07EA578780990AC48006801F00B
:1054A0009FFE01F0A9FE06900791E07804906078D5
:1054B0000390A078029009980190099800902B0021
:1054C0003A78310024313E4804F0BEFE39E0A0486D
:1054D000A0499C4F4A780392097802914178019142
:1054E000007800909C48006801F07AFE0400924821
:1054F000008801F065FE0100200004F0FFFC01F0CF
:105500007BFE02000B0095493800FEF777FD3C005A
:10551000934D07263B21200005F06CF80400287805
:10552000002801D0641C05E0002C03D0611CE01EA3
:1055300005F06AF8AD1C761EECD13900204804F065
:1055400083FE41480078002803D0022801D03FD3D1
:10555000DEE0844803C8002900D087E0002800D09E
:1055600084E0784CB94D8048006801F039FE0600AF
:105570007148008801F024FE0100300004F0BEFCF8
:1055800001F03AFE00900191B14AB2482978C90071
:1055900041182000FEF732FD2878002800D1BBE03A
:1055A0002E21200005F026F8002800D1ACE03B4970
:1055B000097800290AD12021A5E000BF3D5900202B
:1055C0008C510020449D0108589D01082E219AE02D
:1055D000A1480068A14904F091FC01F00DFE020011
:1055E0000B009F499F4804F075FE91E03048007819
:1055F000002807D04C490AE05C57002031590020B0
:105600002759002049480078002804D04849954887
:1056100004F01AFE7CE00B480078012806D11748F8
:10562000027817498F4804F00FFE02E00898FFF750
:1056300047FD8D4800788D490978014306D18C4992
:1056400063E000BF475900204A590020894800788C
:1056500089490978014303D0884956E05A59002006
:10566000404803C8002901D1002823D03E480268E1
:1056700079480168089800F079F849E04859002015
:105680007C9C01085B5900206056002086000000C9
:1056900020000000604D0020A600000026590020D8
:1056A0003A000000F456002030580020349E0108D3
:1056B0002E590020234C654D2B48006801F090FDC9
:1056C00006001D48008801F07BFD0100300004F059
:1056D00015FC01F091FD009001915D4A5D4829782B
:1056E000C90041182000FEF789FC2878002813D053
:1056F0002E21200004F07EFF002805D060490978A3
:10570000002907D1202101702146564804F0E2FD0E
:105710000BB0F0BD2E21F6E7594800780028F3D1F0
:105720002020E073F0E700BF309D010835590020CC
:105730001C9D0108D85700200E590020E09C01084C
:10574000A89C0108505300200C5900201858002034
:10575000B8560020CC560020E0570020A09E01083B
:1057600029570020B85700204C580020F8B50800F1
:1057700017003A4904F0C2FB060004F07FFF04F072
:10578000CFFF642801D2002416E001006439E12231
:105790009200914201D20A240EE03A4941183A4A55
:1057A000914201D2142407E0384940183849884210
:1057B00001D21E2400E02824364D300001F01CFDEB
:1057C00002000B00344801192800FEF717FC040002
:1057D0001E4E380001F0F4FC07003048008801F04C
:1057E000EFFC0100380004F089FB01F005FD020028
:1057F0000B00A64831784F0079184900411864B26F
:105800002819FEF7FBFB3078002818D04C2128001F
:1058100004F0F0FE00280BD02E21401C04F0EAFE1C
:10582000002805D016490978002906D120210170E9
:1058300029000C4804F04EFDF1BD2E21F7E7104879
:1058400000780028F4D12020E873F1E713590020F4
:10585000E89C0108909C01084458002000007A440C
:10586000CC9C01088C5100204B590020505900203D
:10587000089D01084E5900204F590020209E010824
:105880002659002018FCFFFF28230000F0D8FFFF56
:10589000905F010050530020B4A501080E5900206C
:1058A00038B50400974805F028FC0500964805F037
:1058B00071FC002D25D0002810D094484078002895
:1058C00036D0EFF3108172B691482022037AD21AB3
:1058D00081F3108812062BD0092124E0012D27D155
:1058E0008A484078002823D0EFF3108172B68848A8
:1058F0002022037AD21A81F31088120618D00A21C6
:1059000011E0012814D181484078002810D0EFF32D
:10591000108172B67E482022037AD21A81F3108851
:10592000120605D00B216A4611706946FEF7AEFCDF
:1059300078480178012914D1EFF3108172B6764AC4
:10594000126981F31088D62149006118096D511A36
:10595000724A914205D300210170714A1170714859
:105960000170B84D2878012802D0022823D025E004
:10597000200001F093F8200000F08AFA200000F0E7
:10598000DFFA200000F0CAFB674908780028674862
:10599000006808D1002811DD01200870D6214900D7
:1059A0006118C8700AE0002808D1D6235B00E3180C
:1059B0001871087002E0200000F022FB5C480078BB
:1059C00000282BD0D620400020180178002925D1AE
:1059D0000121017000259C4A157085719B490D704D
:1059E000BA490D70BA490D70002280214900A020EB
:1059F000C00504F0E7F900220421954804F0E2F91B
:105A0000200000F0FFFB200000F002FE91484570EE
:105A10000122411C032004F059FA31BDEFF310803C
:105A200072B68D490A79012A00D0002280F31088CD
:105A3000002A0ED0EFF3108072B600220A7180F3B4
:105A40001088200000F0DEFB20002168896888476C
:105A500031BD200000F002F9200000F06DFD9D48EE
:105A60000078002806D099480078002802D120004C
:105A700000F00EF82878022806D195480078002812
:105A800002D1200000F004F831BD0000B89C0108EC
:105A9000F8B50400EFF3108072B61F4D2F6980F344
:105AA00010888D4E300005F079FED42149006158F0
:105AB000791A8A4A8018814210D3894801780029CE
:105AC0000CD101210A00017086480160EFF31080BB
:105AD00072B6296980F31088B7480160EFF310802F
