:020000040800F2
:10000000C06A00207DAB0108959301089793010811
:1000100000000000000000000000000000000000E0
:10002000000000000000000000000000999301089B
:100030000000000000000000A99901081D7B0008D5
:10004000E9AB0108000000009B930108EBAB01083D
:10005000EDAB0108A5930108EFAB0108AF930108D0
:1000600000000000F1AB0108F3AB0108F5AB01089B
:10007000F7AB0108F9AB0108FBAB01080000000079
:10008000FDAB0108BB930108FFAB010801AC0108FF
:1000900003AC010805AC0108C5930108CF93010822
:1000A000EB93010807AC010809AC010875130108BE
:1000B0002D9001086502000870B5B24C201D02F0B9
:1000C0009DFDB14EC74D2A00310002F0A2FD200077
:1000D0001C3002F093FD2A00310002F09AFD20004E
:1000E000343002F08BFD2A00310002F092FD70BD29
:1000F00010B504001C3002F081FD2000343002F005
:100100007DFD20004C3002F079FD2000643002F0CB
:1001100075FD20007C3002F071FD2000943002F06B
:100120006DFD2000AC3002F069FD2000C43002F00B
:1001300065FD2000DC3002F061FD2000F43002F0AB
:100140005DFD86204000201802F058FD200010BD03
:10015000F8B584B0002469464C73A34DA9780029F2
:1001600009D10121A970EFF3108172B6C34A126957
:1001700081F310886A6007000126387800281FD1B3
:100180007C70BC707C71FC703C71E22040003C547F
:10019000A64802F08DFDA6A13800C43002F0AFFDE4
:1001A000A4493800DC3002F0AAFDA24938007C30B6
:1001B00002F0A5FD9F493800943002F0A0FD3E708A
:1001C0009D490E800020C0430290019603A8009034
:1001D0000223B822A021AA4803F0B8F8401E8041AB
:1001E000C043C00FA74908706846007BA649087045
:1001F000012832D17878002829D1EFF3108072B627
:100200009E49096980F310886868081AB4498842D1
:1002100006D37C70BC707C71FC703C716C7002E029
:10022000B878002819D1B6A1380000F0DFF83220E4
:1002300002F03EFD687800280FD16E70EFF3108059
:1002400072B68E49096980F31088696005E02878E4
:10025000002800D12E70684646736846407B05B082
:10026000F0BD000038B5EFF3108072B6834CA16882
:10027000491CA16080F31088AF4DE969202001403E
:1002800004D02968084001D000F080F82968802057
:10029000014004D0E969084001D000F03AF829682B
:1002A00040200140002905D0E969014002D02862C0
:1002B00000F058F8A868C0070AD5E869400707D5D4
:1002C000802080059D490860BFF34F8FBFF36F8F7B
:1002D000EFF3108072B6A168491EA16002D080F3CE
:1002E000108831BD6268514211400A011143944A9D
:1002F0008B0119430B04591A890E515CE160226885
:10030000914203D0802149058E4A116080F3108804
:1003100031BD1C48C16C4A1CC264026B102A01D357
:10032000C26901E002001C32834B515C9962C16CCE
:10033000C06A814215D1EFF31080012181F310884A
:10034000196880229143196080F31088EFF31080C0
:10035000012181F31088196840220A431A6080F352
:1003600010887047EFF31080012181F310887249E3
:100370000A6840239A430A6080F31088012072497A
:1003800008707047605C0020E195010838B56F483F
:100390000068C0B204F01EF8C1B26D4804F023F842
:1003A000EFF3108072B635494A686A4B1C68D54332
:1003B000254005D04D6825434D6022401A6001E07C
:1003C0000121197180F3108831BD10B55E4C02E037
:1003D0000A2002F06DFC20780028F9D0002020705F
:1003E00010BD00002C600020E05E002038B5564CA7
:1003F0000025E56420001C3002F081FCA069102873
:1004000001D3606800E0201D656105702570EFF381
:100410001080012181F3108847490A688023134323
:100420000B6080F31088FFF7D0FF31BD8813000008
:1004300039390000A88301088060002038B5424C9B
:100440000025E56420001C3003F0EBFFA0691028B4
:1004500001D3606800E0201D65610570EFF3108036
:10046000012181F3108834490A68802313430B600B
:1004700080F310882570FFF7A8FF31BDD40A002053
:10048000685B0020585F0020A060002070B5160057
:100490002D4D0024EC6428001C3003F0C2FF002323
:1004A000DB430022310028001C3003F0C5FFA8699F
:1004B000102801D3686800E0281D6C6104702C705E
:1004C000EFF31080012181F310881B490A68802313
:1004D00013430B6080F31088FFF777FF70BD0000B7
:1004E000E980000010B500240022194803F0D7FF6E
:1004F0000021C943884200D00124200010BD000023
:1005000041540D00F8B50E00170000250E4C0022D6
:10051000201D03F0C4FF0021C94388420AD03900DE
:1005200032698218201D03F0BAFF0021C9438842B6
:1005300000D001252800F2BD004C004080E100E021
:100540000C98010804ED00E0605C0020244C0040A1
:10055000645C0020305F0020F8B5944CA544060090
:1005600093A1684603F0A9FF7078002801D000F03D
:100570003EFC9049FFA8483003F09FFF0100300087
:10058000FFF7B0FF040000220121FFA8483003F06C
:10059000A4FF002C59D18849FFA8303003F08DFF0B
:1005A00001003000FFF79EFF040000220121FFA898
:1005B000303003F092FF002C4FD18049FFA8183053
:1005C00003F07BFF01003000FFF78CFF04000022E6
:1005D0000121FFA8183003F080FF002C3DD178499D
:1005E000FFA803F06AFF01003000FFF77BFF040063
:1005F00000220121FFA803F070FF002C33D17149C4
:10060000F9A803F05AFF01003000FFF76BFF040068
:1006100000220121F9A803F060FF002C29D16A49CA
:10062000F3A803F04AFF01003000FFF75BFF00284A
:1006300025D16649EDA803F040FFEDA93000FFF792
:1006400051FF00281DD001242CE00120B07060492A
:100650003000FFF7CBFE01F033F95E493000FFF7C1
:10066000C5FE01F02DF95C493000FFF7BFFE01F037
:1006700027F95A493000FFF7B9FE01F021F90124AA
:1006800015E05749E7A803F018FFE7A93000FFF786
:1006900029FF441EA441E443E40F00220121E7A8FE
:1006A00003F01BFF00220121EDA803F016FF00223A
:1006B0000121F3A803F011FF002C31D14949E1A831
:1006C00003F0FBFE484D2900DBA803F0F6FE020014
:1006D000E1A93000FFF716FF040000220121DBA88A
:1006E00003F0FBFE00220121E1A803F0F6FE002C3E
:1006F0001ED1DC49D5A803F0E0FE01003000FFF771
:10070000F1FE00282BD1D84C2100CFA803F0D5FE54
:10071000CFA93000FFF7E6FE002822D0012485E0B3
:1007200001207071D1493000FFF760FE01F0C8F878
:100730003100FFA8603001F0CBFAFFA96031300032
:10074000C43003F0E2FE00220121FFA8603003F074
:10075000C4FEC7493000FFF749FE01F0B1F801249B
:1007600069E021005831C9A803F0A7FEC9A93000EB
:10077000FFF7B8FE002801D0012452E0D549C3A8F4
:1007800003F09BFEC3A93000FFF7ACFE002801D0A8
:10079000012441E0D049BDA803F08FFEBDA930007F
:1007A000FFF7A0FE002821D0012430E018FAFFFF57
:1007B00000000000F87C01080C7D0108247D010880
:1007C000387D0108587D0108787D0108947D010875
:1007D000047D0108187D01084C7D01086C7D01082D
:1007E000B07D0108D47D0108E47D0108BB49B7A8AC
:1007F00003F063FEB7A93000FFF774FE441EA44166
:10080000E443E40F00220121B7A803F066FE0022B2
:100810000121BDA803F061FE00220121C3A803F05D
:100820005CFE00220121C9A803F057FE002201212D
:10083000CFA803F052FE00220121D5A803F04DFEFF
:10084000002C00D0E2E0DE49B1A803F036FE010042
:100850003000FFF747FE040000220121B1A803F099
:100860003CFE002C00D0D7E0D649ABA803F025FE13
:1008700001003000FFF736FE002800D0D2E0D24958
:10088000A5A803F01AFED1A19FA803F016FE9FAA07
:10089000A5A93000FFF736FE441EA441E443E40F4F
:1008A000002201219FA803F018FE00220121A5A823
:1008B00003F013FE00220121ABA803F00EFE002C72
:1008C00000D0B1E0C24999A803F0F7FDBFA193A8F9
:1008D00003F0F3FD020099A93000FFF713FE0400B6
:1008E0000022012193A803F0F8FD0022012199A81C
:1008F00003F0F3FD002C00D09CE0B6498DA803F076
:10090000DCFD01003000FFF7EDFD040000220121B5
:100910008DA803F0E2FD002C00D091E0AE4987A83D
:1009200003F0CBFDAD4981A803F0C7FD020087A904
:100930003000FFF7E7FD04000022012181A803F049
:10094000CCFD0022012187A803F0C7FD002C7DD13A
:10095000D6497BA803F0B1FD01003000FFF7C2FDCE
:100960000400002201217BA803F0B7FD002C73D105
:10097000CF4975A803F0A1FD01003000FFF7B2FDDB
:1009800004000022012175A803F0A7FD002C71D1FD
:10099000DB496FA803F091FD290069A803F08DFDE4
:1009A00002006FA93000FFF7ADFD04000022012115
:1009B00069A803F092FD002201216FA803F08DFDCC
:1009C000002C5DD1284D2C00B034210063A803F029
:1009D00074FDCC495DA803F070FD020063A93000EE
:1009E000FFF790FD002861D1210057A803F065FDB5
:1009F000C54F390051A803F060FD51AA57A9300036
:100A0000FFF780FD002853D001248EE0BF4930005D
:100A1000FFF7ECFC00F054FFB9493000FFF7E6FCAB
:100A200000F04EFF012445E7B9493000FFF7DEFC36
:100A300000F046FFB7493000FFF7D8FC00F040FF58
:100A4000B5493000FFF7D2FC00F03AFFB34930005F
:100A5000FFF7CCFC00F034FFB1493000FFF7C6FCD3
:100A600000F02EFFF87D0108E8890108CC7D01081F
:100A7000EC7D0108AB493000FFF7B8FC00F020FF27
:100A80003100FFA8603000F099FFFFA9603130000D
:100A9000943003F03AFD00220121FFA8603003F0FA
:100AA0001CFD300001F083FC00F00AFF012446E049
:100AB0009D4C21004BA803F000FD924945A803F08E
:100AC000FCFC45AA4BA93000FFF71CFD002807D00D
:100AD000012420E00C7E01082C7E0108487E0108DC
:100AE00021003FA803F0E9FC390039A803F0E5FC38
:100AF00039AA3FA93000FFF705FD441EA441E44395
:100B0000E40F0022012139A803F0E7FC00220121B3
:100B10003FA803F0E2FC0022012145A803F0DDFC20
:100B2000002201214BA803F0D8FC0022012151A88A
:100B300003F0D3FC0022012157A803F0CEFC0022D1
:100B400001215DA803F0C9FC0022012163A803F084
:100B5000C4FC002C44D12900F83133A803F0ADFCCB
:100B600069492DA803F0A9FC020033A93000FFF762
:100B7000C9FC0400002201212DA803F0AEFC0022D4
:100B8000012133A803F0A9FC002C00D092E06749B2
:100B900027A803F092FC01003000FFF7A3FC002817
:100BA00000D09EE0624921A803F087FC21A9300013
:100BB000FFF798FC002800D195E0012400E100BF78
:100BC000707E0108907E0108AC7E01080D0A0000CD
:100BD000D87E0108087F01082C7F0108387F0108B2
:100BE0003100FFA8603000F027FFFFA960316846A0
:100BF00003F08BFC00220121FFA8603003F06DFCA4
:100C000000224CA1684603F0A2FCF0600021C94319
:100C1000884201D000BF10E03100FFA8603000F032
:100C20000BFFFFA960313000DC3003F06EFC0022C6
:100C30000121FFA8603003F050FC092106A803F051
:100C4000ABFC3D4802683D4906A803F0C5FC84B2F0
:100C50003700F4373AA1380002F051F8002C09DDD2
:100C600006A8250004002178380003F0BCFB641CB2
:100C70006D1EF8D10124747032488169102901D3A6
:100C8000416800E0011D002242610A70EFF3108507
:100C900072B6E14E300003F0BFFC002800D1347181
:100CA00085F310880022012100F00CFE4C7F010822
:100CB0006C7F01083100FFA8603000F00FFEFFA933
:100CC000603130007C3003F020FC00220121FFA8BD
:100CD000603003F002FC0A493000FFF787FB00F0A8
:100CE000EFFD012471E0E4491BA803F0E6FB1BA91A
:100CF0003000FFF7F7FB002826D001245BE000BF9F
:100D0000847E0108947F01089C7F0108647E0108AD
:100D1000C87E0108F87E01081C7F0108407F010899
:100D2000607F0108807F0108BC8A0108AC7F010850
:100D3000BC7F010807000000745F0020A47F010849
:100D400000000000605C0020CC4915A803F0B5FB52
:100D500015A93000FFF7C6FB002801D0012425E0CB
:100D60008E20400029180FA803F0A7FB0FA9300020
:100D7000FFF7B8FB002801D0012412E0A2204000B8
:100D8000291809A803F099FB09A93000FFF7AAFB6D
:100D9000441EA441E443E40F0022012109A803F00A
:100DA0009CFB002201210FA803F097FB00220121E8
:100DB00015A803F092FB002201211BA803F08DFB74
:100DC0000022012121A803F088FB0022012127A88D
:100DD00003F083FB002C01D100F072FD0120B07103
:100DE00000207070B0703070002200F06AFDA449DD
:100DF000FFA80C3003F061FBA2A1FFA8FF30D530A3
:100E000003F05BFB0200FFA90C313000FFF77AFB17
:100E1000002801D0012436E09B49FCA803F04DFBDB
:100E200098A42100F6A803F048FBF6AAFCA930001C
:100E3000FFF768FB002801D001241AE09349F0A8CD
:100E400003F03BFB2100EAA803F037FBEAAAF0A974
:100E50003000FFF757FB441EA441E443E40F002297
:100E60000121EAA803F039FB00220121F0A803F0D8
:100E700034FB00220121F6A803F02FFB0022012100
:100E8000FCA803F02AFB00220121FFA8FF30D53087
:100E900003F023FB00220121FFA80C3003F01DFB0F
:100EA000002C00D0BAE07A49E4A803F006FBE5493B
:100EB000FFA8FF30BD3003F000FB0200E4A93000C2
:100EC000FFF720FB040000220121FFA8FF30BD3006
:100ED00003F003FB00220121E4A803F0FEFA002C3A
:100EE00000D0E1E06B49DEA803F0E7FA6A4D290083
:100EF000FFA8FF30A53003F0E0FA0200DEA93000C1
:100F0000FFF700FB040000220121FFA8FF30A530FD
:100F100003F0E3FA00220121DEA803F0DEFA002C40
:100F200000D0C6E05D49D8A803F0C7FA2900FFA8A1
:100F3000FF308D3003F0C1FA0200D8A93000FFF76E
:100F4000E1FA040000220121FFA8FF308D3003F0F8
:100F5000C4FA00220121D8A803F0BFFA002C00D067
:100F6000ACE04F49D2A803F0A8FAB649FFA8FF3079
:100F7000753003F0A2FA0200D2A93000FFF7C2FADE
:100F8000040000220121FFA8FF30753003F0A5FA0C
:100F900000220121D2A803F0A0FA002C00D093E097
:100FA0004049FFA8FF305D3003F087FA01003000B0
:100FB000FFF798FA040000220121FFA8FF305D30FE
:100FC00003F08BFA002C00D084E0E54DB620400001
:100FD0002918CCA803F071FA2AA73900FFA8FF301E
:100FE000453003F06AFA0200CCA93000FFF78AFA14
:100FF000002873D12900B031C6A803F05EFA390089
:10100000C0A803F05AFAC0AAC6A93000FFF77AFABE
:10101000002865D001249CE0505F0020310006A824
:1010200000F06EFE06A930004C3003F06EFA00228C
:10103000012106A803F051FAD7A130004C3003F08B
:1010400041FBD64906A803F038FA31004C310CA810
:1010500003F070FB020006A93000FFF717FA002228
:1010600001210CA803F039FA0022012106A803F09F
:1010700034FA00F025FC00BFD87F0108F07F01089A
:101080000C8001080D0A00001C8001082C8001085A
:1010900048800108608001086C80010874800108A4
:1010A000908001089C800108300000F07BFE00F079
:1010B00007FC300001F0C2F800F002FCB849300033
:1010C000FFF794F900F0FCFBB5493000FFF78EF90B
:1010D00000F0F6FB300001F06AF9F1E3012442E090
:1010E000CA2040002918BAA803F0E7F93900B4A8CB
:1010F00003F0E3F9B4AABAA93000FFF703FA002815
:1011000001D001241BE02900D431AEA803F0D5F9A9
:101110003900A8A803F0D1F9A8AAAEA93000FFF7BA
:10112000F1F9441EA441E443E40F00220121A8A8E0
:1011300003F0D3F900220121AEA803F0CEF900227A
:101140000121B4A803F0C9F900220121BAA803F0D3
:10115000C4F900220121C0A803F0BFF90022012137
:10116000C6A803F0BAF900220121FFA8FF304530DC
:1011700003F0B3F900220121CCA803F0AEF9002C52
:1011800000D0D3E0C149A2A803F097F92D49FFA8E8
:10119000FF302D3003F091F90200A2A93000FFF7D3
:1011A000B1F9040000220121FFA8FF302D3003F027
:1011B00094F900220121A2A803F08FF9002C00D09D
:1011C00011E1DE2040002918FFA8FF30153003F0A0
:1011D00074F901003000FFF785F9040000220121B5
:1011E000FFA8FF30153003F078F9002C00D016E18D
:1011F000F22040002918FFA8FC3003F05EF901003E
:101200003000FFF76FF9040000220121FFA8FC3035
:1012100003F063F9002C00D006E19D49FFA8E430FB
:1012200003F04BF901003000FFF75CF904000022E5
:101230000121FFA8E43003F050F9002C00D0F8E0C1
:10124000944901E0E47D0108FFA8CC3003F035F9B2
:1012500001003000FFF746F9040000220121FFA839
:10126000CC3003F03AF9002C00D0E7E08A499CA882
:1012700003F023F98949FFA8B43003F01EF90200F6
:101280009CA93000FFF73EF9040000220121FFA8CD
:10129000B43003F022F9002201219CA803F01DF9CB
:1012A000002C00D0CFE07E49FFA89C3003F005F968
:1012B00001003000FFF716F9040000220121FFA809
:1012C0009C3003F00AF9002C00D0C1E07549FFA85A
:1012D000843003F0F2F801003000FFF703F9040056
:1012E00000220121FFA8843003F0F7F8002C00D081
:1012F000C6E0822080002918FFA86C3003F0DDF8DA
:1013000001003000FFF7EEF8002800D0D8E08B2075
:101310008000291896A803F0D0F896A93000FFF7AE
:10132000E1F8002800D1CDE001249AE1310006A8BF
:1013300000F082FB06A9684603F0E7F800220121CD
:1013400006A803F0CAF8002257A1684603F0FFF888
:10135000F0600021C943884204D000BF10E000BF04
:10136000E8890108310006A800F066FB06A93000F4
:10137000DC3003F0CAF80022012106A803F0ADF822
:10138000F079002802D00120484910E0307A002886
:1013900008D0012046490AE00D0000003C80010809
:1013A00080800108707A002802D00120414908702D
:1013B0000020F071307270723F498A69102A01D39F
:1013C0004A6800E00A1D48611070EFF3108572B69C
:1013D0003A4C200003F020F9002801D101202071AF
:1013E00085F310886CE2310006A800F071FC06A9B4
:1013F0003000C43003F089F80022012106A803F070
:101400006CF8EFF3108572B62C4C200003F004F951
:10141000002801D10120207185F3108850E2C449D1
:101420003000FEF7E3FF4BE2C2493000FEF7DEFF7B
:1014300046E2C1493000FEF7D9FF41E2BF49300022
:10144000FEF7D4FF3CE2BC493000FEF7CFFF37E2A5
:1014500019488169102901D3426800E0021D00216A
:1014600041611170EFF3108572B6144C200003F047
:10147000D3F8002801D10120207185F310881FE2E4
:10148000CF493000FEF7B2FF1AE200BFD47D010859
:10149000DC80010800810108308101084C810108CD
:1014A000588101087481010807000000BD60002018
:1014B000BB600020BC600020605C0020505F00200A
:1014C0000124D3E094208000291890A802F0F5FFB1
:1014D00090A93000FFF706F8002801D00124BBE0F6
:1014E0009D20800029188AA802F0E7FF8AA9300011
:1014F000FEF7F8FF002801D00124A8E0A620800014
:10150000291884A802F0D9FF84A93000FEF7EAFF69
:10151000002801D0012495E0AF20800029187EA882
:1015200002F0CBFF7EA93000FEF7DCFF002801D0DF
:10153000012482E0B8208000291878A802F0BDFFBD
:1015400078A93000FEF7CEFF002801D001246FE01B
:10155000CC4972A802F0B1FF72A93000FEF7C2FFB9
:10156000002801D001245EE0C120800029186CA869
:1015700002F0A3FF6CA93000FEF7B4FF002801D0F1
:1015800001244BE0CA208000291866A802F095FFCC
:1015900066A93000FEF7A6FF002801D0012438E03C
:1015A000D5208000291860A802F087FF60A93000CC
:1015B000FEF798FF002801D0012425E0E0208000FC
:1015C00029185AA802F079FF5AA93000FEF78AFFBD
:1015D000002801D0012412E0EB208000291854A833
:1015E00002F06BFF54A93000FEF77CFF441EA441BB
:1015F000E443E40F0022012154A802F06EFF002210
:1016000001215AA802F069FF0022012160A802F01E
:1016100064FF0022012166A802F05FFF0022012181
:101620006CA802F05AFF0022012172A802F055FFB7
:101630000022012178A802F050FF002201217EA89B
:1016400002F04BFF0022012184A802F046FF002295
:1016500001218AA802F041FF0022012190A802F096
:101660003CFF0022012196A802F037FF0022012151
:10167000FFA86C3002F031FF002C4ED19449FFA836
:10168000543002F01AFF01003000FEF72BFF040077
:1016900000220121FFA8543002F01FFF002C41D18D
:1016A0008C494EA802F009FF8B49FFA83C3002F09C
:1016B00004FF02004EA93000FEF724FF04000022C0
:1016C0000121FFA83C3002F008FF002201214EA8B2
:1016D00002F003FF002C33D1B64948A802F0EDFE1A
:1016E0003900FFA8243002F0E8FE020048A93000CB
:1016F000FEF708FF00283ED1AF4942A802F0DDFE08
:1017000039003CA802F0D9FE3CAA42A93000FEF7FD
:10171000F9FE002831D0012494E0BF493000FEF7E3
:1017200065FECDE0BD493000FEF760FEC8E000BFB9
:10173000B0800108CC800108F080010820810108F8
:10174000300000F0BFFEB6488169102901D342681D
:1017500000E0021D002141611170EFF3108572B6A7
:10176000B04C200002F058FF002801D10120207168
:1017700085F31088A4E001246EE0AB4936A802F09E
:101780009CFE390030A802F098FE30AA36A930003D
:10179000FEF7B8FE002801D0012449E0A3492AA899
:1017A00002F08BFE390024A802F087FE24AA2AA9A1
:1017B0003000FEF7A7FE002804D001242EE000BF71
:1017C000888101089A491EA802F077FE390018A8FE
:1017D00002F073FE18AA1EA93000FEF793FE00283F
:1017E00001D0012410E0934912A802F066FE12A96C
:1017F0003000FEF777FE441EA441E443E40F0022CC
:10180000012112A802F069FE0022012118A802F0AD
:1018100064FE002201211EA802F05FFE00220121C9
:1018200024A802F05AFE002201212AA802F055FE47
:101830000022012130A802F050FE0022012136A82A
:1018400002F04BFE002201213CA802F046FE0022DD
:10185000012142A802F041FE00220121FFA824300C
:1018600002F03BFE0022012148A802F036FE002CC7
:1018700026D0E220400030180178002904D0082941
:1018800006D00EE0A481010808210170B94904E0E6
:1018900009210170F620800029183000FEF7A6FD0E
:1018A0000EE00D210170EFF3108572B65D4C200043
:1018B00002F0B2FE002801D10120207185F31088CA
:1018C00000220121684602F008FEAB488544F0BDC5
:1018D000D0810108F88101084C810108F8B58CB06D
:1018E00007000D00A5A102F0E8FDA54928001C3065
:1018F00001F005FA4A4CEA6A29001C31201D02F069
:10190000CEFDE96A401828610026F643B0424ED069
:101910009C4928001C3001F0F2F92A6929001C3189
:10192000201D02F0BCFD6861B04240D02869A16969
:10193000102901D3616800E0211D091806A802F0F2
:10194000BCFD02002900684601F0A1F869462800A4
:10195000343002F0DAFD00220121684602F0BDFDBC
:101960000022012106A802F0B8FD00201AE028009C
:10197000343002F0F3FE005D2B2808D0EC6828001C
:10198000343002F0EBFE005D30380A2808D2EC68F3
:101990002800343002F0E2FE015D380002F023FD41
:1019A000E868401CE860EC68686C8442DFD30DB0E6
:1019B000F0BD00000C82010828820108F8B505007E
:1019C0000C006EA102F079FDC04920001C3001F02E
:1019D00096F9134F002221001C31381D02F05FFDE3
:1019E000E16A401820610021C94388420AD1F1BD53
:1019F0002669701C2061381D02F0B0FE815D280050
:101A000002F0F1FC2669381D02F0A8FE805D02F0AC
:101A1000AAFE0128ECDAF1BDC4810108EC810108BD
:101A2000605C0020505F0020448201086082010851
:101A30007C82010898820108F8B58CB006000D0080
:101A40004EA102F03AFD4E4928001C3001F057F932
:101A50004D4CEA6A29001C31201D02F020FDE96A84
:101A6000401828610027FF43B8420FD1A34928003E
:101A70001C3001F044F9EA6A29001C31201D02F0F3
:101A80000EFDE96A40182861B84271D0BA492800B1
:101A90001C3001F034F92A6929001C31201D02F0A4
:101AA000FEFC6861B8421ED02869A169102901D3E3
:101AB000616800E0211D091806A802F0FEFC020082
:101AC0002900684600F062F86946300002F01DFD0A
:101AD00000220121684602F000FD0022012106A833
:101AE00002F0FBFC44E0274928001C3001F007F914
:101AF0002A6929001C31201D02F0D1FC6861B8421E
:101B000036D02869A169102901D3616800E0211D40
:101B1000091806A802F0D1FC02002900684600F06E
:101B2000B6FF69462800343002F0EFFC00220121A4
:101B3000684602F0D2FC0022012106A802F0CDFC8A
:101B40002900343106A802F0F5FD0200290068469C
:101B500000F01CF86946300002F0D7FC0022012199
:101B6000684602F0BAFC0022012106A802F0B5FC8A
:101B70000DB0F0BDB4820108EC05000000000000CB
:101B80002C83010838830108605C0020F8B5070049
:101B90000C00150079A102F090FC79A120001C3006
:101BA00001F0ADF8002221001C31280002F077FC82
:101BB000E0600026F643B04200D186E071A120002B
:101BC0001C3001F09CF8E26821001C31280002F072
:101BD00066FCE060B04278D06969102901D32968B9
:101BE00000E02900085C06E0E668701CE060280060
:101BF00002F0B4FD805D010001D02228F4D0E66837
:101C0000280002F0ABFD805D02F0ADFD012803DB92
:101C1000E068401CE060F2E7E668280002F09EFD04
:101C2000805D2028F4D0E668280002F097FD805DF2
:101C300030380A2806D3E668280002F08FFD805D60
:101C400020280BD1E668280002F088FD815D38006D
:101C500002F0C9FBE068401CE060E4E7E6682800A9
:101C600002F07CFD805D2E28ECD03E0046A70022CD
:101C70003900300002F06BFCE06001460025ED43C6
:101C8000A94202D0300002F077FD00223900300076
:101C900002F05DFCE0600146A94202D0300002F093
:101CA0006BFD002239A1300002F051FCE0600446D7
:101CB000AC420AD036A5280002F06AFD00902B0045
:101CC00001222100300002F06AFDF1BD40830108CD
:101CD00038B5050029A102F0F0FB2E4C02230F229B
:101CE000211D280002F0A8FBA0690F2801D9606817
:101CF00000E0201D00216161017031BD58830108A1
:101D000070B506000C001DA102F0D7FB224920008F
:101D10001C3000F0F4FF1F4D002221001C31281D53
:101D200002F0BDFBE16A4018E0600021C94388422F
:101D300021D01AA120001C3000F0E1FFE268210050
:101D40001C31281D02F0ABFBE16A4018206114A190
:101D500020001C3000F0D3FF226921001C31281D17
:101D600002F09DFB2169431AA36160612269291D6C
:101D7000300002F061FB70BD5083010800000000DC
:101D80003A20000022000000200000002C0000008B
:101D90002E000000605C002064830108222C0000FB
:101DA0000D0A0000FEB505002CA42100643000F0EF
:101DB000A6FF21002800AC3000F0A1FF86204000E3
:101DC00028180190210000F09AFF254928001C30B6
:101DD00000F095FF234C002229001C31201D02F049
:101DE0005EFBE96A401828610027FF43B84200D132
:101DF000A7E1A169102901D3616800E0211D095CF8
:101E00002B291AD12800AC3002F0EDFA2869401CC9
:101E100028610AE02E69701C2861201D02F09EFCDA
:101E2000815D2800AC3002F0DEFA2E69201D02F040
:101E300095FC805D30380A28ECD3C3A128001C3003
:101E400000F05DFF2A6929001C31201D02F027FBEC
:101E5000E96A40182861B84210D172E10000000020
:101E600070830108605C00202E69701C2861201DB1
:101E700002F074FC815D019802F0B5FA2E69201D14
:101E800002F06CFC805D30380A28EDD32E69201DED
:101E900002F064FC805D02F0F1FC00280EDD286990
:101EA000401C2861F2E72E69701C2861201D02F099
:101EB00055FC815D2800643002F095FA2E69201DE2
:101EC00002F04CFC805D02F04EFC0028EBDC82202E
:101ED00040002E1837682800F43002F0D8FC009734
:101EE0000300B2690021019802F0D6FC002821D13C
:101EF00096492800643002F0F2FC002820D1944971
:101F00002800643002F0EBFC00282DD00D2069463B
:101F10000870C04802F0F4FCEFF3108472B6BE4DB6
:101F2000280002F079FB002801D10120287184F3F8
:101F3000108806E1A069102800D2F1E06068F0E0A6
:101F40000C2069460870B34802F0DAFCEFF3108504
:101F500072B6B14C200002F05FFB002801D10120D5
:101F6000207185F31088ECE0AC492800643002F061
:101F7000B6FC002813D00F2069460870A54802F06F
:101F8000BFFCEFF3108572B6A34C200002F044FBB7
:101F9000002801D10120207185F31088D1E0A049EB
:101FA0002800643002F09BFC002818D09D4800787F
:101FB000002800D0C5E0022069460870954802F06C
:101FC0009FFCEFF3108572B6934C200002F024FBC7
:101FD000002801D10120207185F31088B1E092A181
:101FE0002800643002F07BFC002812D001246946EE
:101FF0000C70884802F084FCEFF3108672B6864DB0
:10200000280002F009FB002800D12C7186F310880B
:1020100097E086A12800643002F061FC002813D00C
:102020000E20694608707B4802F06AFCEFF31085C9
:1020300072B6794C200002F0EFFA002801D101209D
:10204000207185F310887CE079A12800643002F0CB
:1020500046FC002817D073480078002871D103206F
:10206000694608706B4802F04BFCEFF3108572B6BE
:10207000694C200002F0D0FA002801D10120207123
:1020800085F310885DE06B492800643002F027FC7E
:10209000002813D00420694608705E4802F030FC26
:1020A000EFF3108572B65C4C200002F0B5FA002800
:1020B00001D10120207185F3108842E05EA1280043
:1020C000643002F00CFC002813D01520694608701B
:1020D000504802F015FCEFF3108572B64E4C20000C
:1020E00002F09AFA002801D10120207185F31088AE
:1020F00027E0A069102801D3606800E0201D0021BE
:1021000061610170EFF3108572B6434C200002F05C
:1021100083FA002801D10120207185F3108810E096
:10212000201D002161610170EFF3108572B63A4CF9
:10213000200002F071FA002801D10120207185F3FE
:10214000108803B0F0BD00000D0A00008083010874
:102150008883010870B592B006000025A5A421006F
:10216000684602F0AAF9D4204000305C401E0328E3
:1021700022D9001F06280BD9C01F03281CD9001F15
:10218000012840D9801E022802D9C01E14D018E0B0
:10219000994C20782B2804D12B21684602F023F992
:1021A0000125E8B2215C080030380A2809D26846C7
:1021B00002F019F96D1CF4E73100AC31684602F009
:1021C00030F98EA1684602F07DFA8D4906A802F02A
:1021D00074F969460CA802F0ADFA020006A93000B5
:1021E000FEF754F9002201210CA802F076F9002232
:1021F000012106A802F071F900220121684602F0CF
:102200006CF912B070BD21007E4800F078FD00220C
:10221000F3E70000745D0020505F00209083010808
:1022200098830108AE6000205253540053494D007A
:102230004F464600A083010857455400F8B586B0C4
:102240000400714D71492800343000F058FD70A72A
:10225000684600F0D3FC822040002658380002F087
:1022600097FA3118049EB1420CD30598884209D0E0
:102270000122684602F07AFB002803D0310068464C
:1022800002F0DFFB0026F643330000222100F43188
:10229000684602F0D1F83900684602F013FA3300BC
:1022A000002269462800343002F0C6F800220121DD
:1022B000684602F012F9D4204000205C401E142829
:1022C00012D801A1095C8F4472828A921452565A24
:1022D0009AA2AAB2BAC2CA4E4E5E666AD2004D49EE
:1022E0002800343002F0EEF94BA12800343002F01F
:1022F000E9F94AA12800343002F0E4F92900343128
:10230000684602F017FA01002000FEF797F8002255
:102310000121684602F0E1F807B0F0BD4049DFE76F
:102320004049DDE74049DBE7200000F01DFBDBE72B
:102330003E49D5E7200000F03DFBD5E7C64928001F
:10234000343002F0BFF90120E071CDE7200000F049
:102350008CF9C9E7200000F097F9C5E7200000F0EC
:10236000A3F9C1E7200000F0B5F9BDE7200000F0B7
:10237000F5F9B9E7200000F012FAB5E7200000F007
:1023800039FAB1E7200000F059FAADE7200000F07B
:1023900097FAA9E7200000F0AFFAA5E7200000F0C7
:1023A00033FBA1E780B5BD49FEF720F801BD38B584
:1023B000040025009435B249280002F090FA002864
:1023C00005D1B049280002F08AFA002801D0B449AA
:1023D00006E0B4A1280002F082FA002803D0BA492E
:1023E0002000FEF703F831BD80B5B849FDF7FEFFC8
:1023F00001BD000000000000785E0020220D0000FA
:1024000060800108945C0020605C0020BC830108AF
:102410000D0A00001C8401080D0000001A000000D5
:102420003484010848840108588401086C85010837
:1024300070B51D001400032C01DA6D1EC91CC9B251
:10244000A8B208182904890C46186421A8B202F021
:102450001BFB80B2361AC8214900A8B202F014FB57
:1024600080B235186001001B0A300C2102F009FB14
:102470002818072102F005FB481CC0B270BDF8B552
:1024800084B000240125FA23DB00D2186B461A80A1
:1024900001AE03900F00684603883A00E9B2039842
:1024A000FFF7C6FF072802D161B27554641C6D1C8A
:1024B000202DF0DB64B23019401E00214056C0B21E
:1024C00005B0F0BDFEB582498A69102A01D349687A
:1024D00000E0091D00909222520085180800133078
:1024E00028600098883284180800133002F0CFFB6F
:1024F000E0752868C01C286002F0C9FB6075286878
:10250000C01C286002F0C3FBA0752868C01C2860AE
:1025100002F0BDFB20702868C01C286002F0B7FBE9
:1025200060702868C01C286002F0B1FBA0700098A1
:10253000E0214900451801A82900042202F0C8FB47
:102540000199844804F05AFC834800782075A84813
:102550000068CA2141625327476200222100A44833
:1025600004F059FF002801D005F094F90022290059
:102570009F4804F0E2FF002801D005F08BF99C4849
:102580000568FF266E62607D401E012858D9801EB6
:1025900005D0C01F29D0401E012851D959E0E07D47
:1025A000FA21C900421803210098FFF768FFA17DB6
:1025B00088424ED3E07DFA21C900421803210098D9
:1025C000FFF75DFFA17D884203D12078032840DB1F
:1025D00024E0E07DFA21C900421803210098FFF7AA
:1025E0004EFFA17D814234D22AE0E07DFA21C9006C
:1025F00042180A210098FFF742FFA17D884228D3A4
:10260000E07DFA21C90042180A210098FFF737FF40
:10261000A17D884209D1207803281ADD607800283E
:1026200017D1A078002814D10AE0E07DFA21C90072
:1026300042180A210098FFF722FFA17D814208D2AB
:102640006B4CCA2068626F62200005F063F8206856
:10265000466203B0F0BD0000C883010880B5D422F3
:1026600052008154FFF776FD01BD10B50400714999
:10267000BA4802F027F80120207210BD00000000C7
:10268000D0820108DC82010810B504006A49B34811
:1026900002F018F80120607210BD0000CC7D010826
:1026A000E4820108554D430010B5942149004418B7
:1026B0008148002142568149200001F08DFF210010
:1026C000A64801F0FFFF10BDF88201080C83010845
:1026D000605C0020BCB59421490045188248C1784F
:1026E0000091437882788149280001F075FF7D4C84
:1026F00029002000343001F0E5FF7D4F7D4800685F
:1027000005F0EEF805F0F8F800223B0005F00DF9B1
:1027100002000B009249280001F05EFF2900200012
:10272000343001F0CFFF8F48006805F0D9F805F08C
:10273000E3F800223B0005F0F8F802000B00B04976
:10274000280001F049FF29002000343001F0BAFFD1
:10275000B3BD000094050020C960002038B5942165
:10276000490045189248C1780091437882785F49C2
:10277000280001F031FF5B4C29002000343001F0CB
:10278000A1FF5C48006805F0ABF805F0B5F8002241
:10279000574B05F0CAF802000B0071491FE038B52D
:1027A0009421490045185048C178009143788278B7
:1027B0004E49280001F010FF4A4C29002000343017
:1027C00001F080FF6748006805F08AF805F094F88A
:1027D0000022474B05F0A9F802000B0088492800A9
:1027E00001F0FAFE29002000343001F06BFF31BD0A
:1027F000485D002038B59421490045188148C178CA
:102800000091437882789149280001F0E5FE354C2B
:1028100029002000343001F055FF8D48006805F094
:102820006BF800228B4B05F080F802000B008A4900
:10283000D5E70000A09D0108E4830108B0B594210C
:10284000490045182A4F8548006805F049F805F009
:1028500053F800223B0005F068F802000B008049A5
:10286000280001F0B9FE1F4C29002000343001F08F
:1028700029FF7C48006805F033F805F03DF8002298
:102880003B0005F052F802000B007749280001F0E8
:10289000A3FE29002000343001F014FF73480068C3
:1028A00005F01EF805F028F800223B0005F03DF881
:1028B00002000B00BD4947E0C5600020F883010815
:1028C00038B50500074CBA492000343001F0FAFE53
:1028D0000023DB4300222900DC312000343001F0EA
:1028E000ABFD31BD605C0020C85F00206C84010836
:1028F00000005940B45F0020B0B59421490045184C
:10290000AC4FAD48006804F0EBFF04F0F5FF002287
:102910003B0005F00AF802000B00A849280001F06E
:102920005BFEA74C29002000343001F0CBFEA54807
:10293000006804F0D5FF04F0DFFF00223B0004F044
:10294000F4FF02000B00A049280001F045FE290019
:102950002000343001F0B6FEB0BD0000945C0020D1
:102960008C840108B85F002070B50500944C97492D
:102970002000343001F0A6FE942040002E18944D23
:102980002A789449300001F027FE310020003430CD
:1029900001F098FE6A78002A08D08F49300001F0D3
:1029A0001BFE31002000343001F08CFE70BD0000B1
:1029B000C45F002070B50500814C88492000343088
:1029C00001F080FE86A12000343001F07BFE9420CF
:1029D00040002D188348006805F008F806B28248C8
:1029E000006805F003F802B233008049280001F0C6
:1029F000F3FD29002000343001F064FE70BD0000BA
:102A0000A0840108D45F0020F8B56D4C784E794958
:102A10000978012913D194214900451871480068AB
:102A200004F0E4FF07B27048006804F0DFFF02B270
:102A30003B003100280001F0CFFD290001E031000A
:102A400024312000343001F03DFEF1BD389E0108F4
:102A5000945F002000408F40B4840108A05F0020F4
:102A60005C9E0108A45F0020D4840108A85F0020B8
:102A700008000200303A0A2A01D2D03103E041387E
:102A8000062802D2C931C8B2704700207047F0B59D
:102A90008BB005000E00170057A101F00EFD02A833
:102AA000052101F077FD02AC0495019600970027FF
:102AB00023E0E021820C0A432270020B1143617073
:102AC0003F2280218309134080251D43A5700240C9
:102AD0001143E1700020207102A905A801F0EDFC6E
:102AE0000023DB4300220100049801F0A5FC002232
:102AF000012105A801F0F1FC3F1D00980069C01EEE
:102B0000874250D2009801F029FEC15D0198FFF77D
:102B1000AFFF0500009801F021FE2D03401CC15DB0
:102B20000198FFF7A5FF00022D18009801F016FE8E
:102B3000801CC15D0198FFF79BFF0600009801F023
:102B40000DFE31016D18C01CC15D0198FFF790FFAB
:102B50002818802803D2207000206070BCE78021F4
:102B6000090188420BD28109C0220A4322708006E3
:102B7000800E8021014361700020A070ACE7490104
:102B8000884296D2010BE0220A4322703F22802124
:102B90008309134080251D43657002401143A170D5
:102BA0000020E07098E70BB0F0BD0000E884010859
:102BB000F884010800005940AC5F00200885010836
:102BC000605C0020B05F002028850108388501087E
:102BD0009060002054850108608501081084010878
:102BE0000D0A000024600020206000205C9C010889
:102BF00040960108A36000200000000010B504000A
:102C000004F011FF00220021200001F066FC2000EA
:102C100010BD80B503000800190004F015FF02BDC7
:102C200010B535E080B52E480021818008218171E2
:102C30002C4908622C4A2D49411804F04DFF01BD72
:102C40004268514211400A011143294A8B0119433C
:102C50000B04591A890E515C026891420BD0C16075
:102C600080214905234A116062B600BF72B601682F
:102C7000C2689142F8D170471A494A6A92008A584C
:102C80001060086B8000085800680A6B4A62704741
:102C9000040010001A000023A380A0711148A3793A
:102CA0009B00C450200004F017FF200010BD00005E
:102CB00010B5EFF3108472B60A494A6A9300CB58F4
:102CC0009880886A0123934098438862C86A0028E4
:102CD00003D108002430FFF7B3FF84F3108810BD40
:102CE000204D0020B00A0020F92C00080808000040
:102CF0000C98010804ED00E005F030FEFCE770B52B
:102D000004000D00280001F043FD0600290020000A
:102D100005F052FE002809D0200001F01FFD33000D
:102D20002A1A2100200005F059FE70BD0022310052
:102D3000200001F01BFE00280AD0200001F00EFD4B
:102D40003200290001F0C4FF3100200001F079FEBB
:102D5000200070BD38B5040001D1012032BD25002E
:102D600040356878002803D12870200005F0C1FEA6
:102D70002420687020680168012291430160606826
:102D80008949014020680161216888488A680240B9
:102D90008A60E1680129A16801D1C24301E084226F
:102DA00012020A4321688A60E168022921684A68A0
:102DB00003D180231B01134301E07D4B13404B6083
:102DC00021684A687B4B13434B602168CA681040F6
:102DD000C860206961690143A06900020843216855
:102DE000C860E069216A01432068016020680168C9
:102DF00001220A430260002068602021697020637C
:102E0000A87032BDFBB5050017004030417820297D
:102E100000D0C4E04021695C012900D1BFE001215C
:102E2000017005F0E5FE060028688024240281690F
:102E300021401CD032001921280001F033FA00286B
:102E400000D083E005F0D4FE801B1928ECD9286857
:102E500080690440E8D028004030202142680A43BD
:102E60004260417000210022827001706EE02C00EF
:102E70003500694609892122230040335A70102207
:102E8000230040339A700022230040335A60676267
:102E90006185626369468F88089E618DFF2904D928
:102EA000FF21218580235B0405E0618D218580233E
:102EB0009B04002911D0616A09788162606A401C14
:102EC00060629A48618D09186185218D0A182285F2
:102ED00097480090521CD2B201E09548009039000A
:102EE000200001F05EFA0BE0FF2020852068B90584
:102EF000890D42688F4B13400B438F491943416042
:102F0000608D002830D02A003100200001F018F92F
:102F100000281BD1606A007821688862606A401CC2
:102F200060628248618D09186185218D08182085AD
:102F3000618D0029E4D00004E2D100953300002225
:102F40008021200001F0BDF8002801D0012027E0F9
:102F5000608DFF28C8D8608D2085002000908023D8
:102F60009B04228DD2B2BAE731002A00200001F082
:102F700018F901000ED120202268D0612268536820
:102F80006E4D1D40556022004032507000200023DD
:102F900093701070481E8041C043C00F00E00220B3
:102FA00003B0F0BD00000000FFFFFFF0FF7FFFFF58
:102FB000FFF7FFFF00800002FBB50500170040305F
:102FC0004178202900D0AEE04021695C012900D180
:102FD000A9E00121017005F00BFE06008024240207
:102FE0002868806920401BD032001921280001F098
:102FF00059F9002873D105F0FBFD801B1928EDD984
:10300000286880690440E9D02800403020214268C7
:103010000A434260417000210022827001705EE02C
:103020002C00350068460089222122004032517070
:103030001021220040329170002122004032516064
:103040006762608561633E4869468F88089E618D2E
:10305000FF2906D9FF212185009080235B04FF22F0
:1030600006E0618D2185009080239B04228DD2B2E1
:103070003900200001F095F90BE0FF202085206841
:10308000B905890D42682B4B13400B432A4919435C
:103090004160608D00282BD02A003100200001F013
:1030A000ACF800281BD12068406A616A0870606A29
:1030B000401C60621D49208D40182085628D51188A
:1030C0006185618D0029E4D00004E2D100953300D0
:1030D00000228021200000F0F4FF002801D0012010
:1030E00022E0608DFF28C8D8608D20850020BAE7D7
:1030F00031002A00200001F054F801000ED12020F8
:103100002268D061226853680C4D1D405560220032
:10311000403250700020002393701070481E804190
:10312000C043C00F00E0022003B0F0BDFFFF00006D
:1031300000200080009C00FC0000FF0100E800FE71
:1031400000240080FEB582B005004030417820297F
:1031500000D0F6E00A99002902D00B9F390003D174
:10316000802189004160C0E04021695C012900D1D3
:10317000E7E00121017005F03BFD060080242402F8
:103180002868806920401CD032001921280001F0F5
:1031900089F8002800D0A8E005F02AFD801B192836
:1031A000ECD9286880690440E8D02800403020210C
:1031B00042680A434260417000210022827001701F
:1031C00093E02C00019621202100403148704020DE
:1031D00021004031887000202100403148600A9869
:1031E0006062678500206063802676045648009000
:1031F00033006846028AD2B20189200001F0D1F87A
:10320000019A0C99200000F09BFF00281BD1684612
:103210008589008A012809D0280A21688862019AD4
:103220000C99200000F08CFF00280CD1EDB2206832
:103230008562019800900C9B00228021200000F004
:1032400040FF002803D00020402160544DE0608DF5
:10325000FF280FD9FF202085002000903300FF2297
:1032600068460189200001F09CF8684607890C9E99
:10327000019D07E0608D2085002000907300228D65
:10328000D2B2EDE72A003100200000F059FF0028FB
:103290002BD1606A007821688862606A401C606295
:1032A000AC48618D09186185218D08182085618DD4
:1032B000002928D0000426D1009533000022802167
:1032C000200000F0FEFE00280FD1608DFF280ED9EF
:1032D000FF2020852068B905890D42689E4B134068
:1032E0000B439E49194341600DE001202AE0608DA7
:1032F00020850020009080239B04228DD2B23900CB
:10330000200001F04EF8608D0028BBD131002A006A
:10331000200000F046FF01000ED120202268D0617D
:1033200022685368B84D1D405560220040325070ED
:103330000020002393701070481E8041C043C00FCE
:1033400000E0022005B0F0BD00200080FEB582B094
:10335000050040304178202900D0F7E00A99002983
:1033600002D00B9F390003D1802189004160C1E068
:103370004021695C012900D1E8E00121017005F0DC
:1033800037FC0600802424022868806920401CD075
:1033900032001921280000F085FF002800D0A9E0A4
:1033A00005F026FC801B1928ECD9286880690440A8
:1033B000E8D028004030202142680A434260417032
:1033C000002100228270017094E02C0001960C9E76
:1033D0002220210040314870402021004031887077
:1033E00000202100403148600A9860626785002013
:1033F0006063B048009000236846028AD2B2018917
:10340000200000F0CEFF019A3100200000F098FE6D
:1034100000281BD168468589008A012809D0280A1E
:1034200021688862019A3100200000F089FE00289E
:103430000CD1EDB220688562019800903300002223
:103440004021200000F03DFE002803D00020402154
:1034500060544FE09848618DFF290ED9FF212185E6
:10346000009080235B04FF2268460189200000F061
:1034700098FF68460789019D07E0618D21850090CE
:1034800080239B04228DD2B2EEE700953300002208
:103490000421200000F015FE00282BD12068406A8E
:1034A000616A0870606A401C60622A49208D401879
:1034B0002085628D51186185618D002928D0000416
:1034C00026D10095330000228021200000F0F9FD74
:1034D00000280FD1608DFF280ED9FF20208520689D
:1034E000B905890D42681C4B13400B431B49194316
:1034F00041600DE001202AE0608D208500200090D1
:1035000080239B04228DD2B23900200000F049FFB5
:10351000608D0028B9D131002A00200000F041FE62
:1035200001000ED120202268D06122685368364DF8
:103530001D405560220040325070002000239370DF
:103540001070481E8041C043C00F00E0022005B04B
:10355000F0BD0000FFFF0000009C00FC0000FF0128
:10356000FBB4050040356978202949D10799002925
:1035700002D0089C260004D18020800068600120D1
:103580003FE00668B7693F043AD44027C75D012F82
:1035900036D06F463B8001232B7021236B70402374
:1035A000AB7000236B600385416244854349C1626F
:1035B0004349416369468988E960D4B23F88012F55
:1035C00004D1B4620022D2432A6102E0120AB2623C
:1035D0002C61026854683B4E26408905890D3143B1
:1035E0006C4624882406240A0C4337492143516041
:1035F0002B7000680168F2220A430260002000E09C
:10360000022003B0F0BC704700E800FEFBB40500E8
:1036100040356978202949D10799002902D0089CB2
:10362000260004D180208000686001203FE0066809
:10363000B7693F043AD44027C75D012F36D06F46A3
:103640003B806B469B8801272F7022276F70402795
:10365000AF7000276F60416244851849C162184904
:103660004163EB60D1B26C462488012C03D1B16276
:103670000021C94301E0120AB262296101684A6867
:10368000104C14409A05920D22436B461B881B0672
:103690001B0A1343802292011A434A602F7000686C
:1036A0000168F2220A430260002000E0022003B019
:1036B000F0BC704700200080002400800000FFFF65
:1036C00071380008009800FC00200001F8B586B0B1
:1036D00000240194040040346478202C00D085E05C
:1036E0000468A469240400D580E04024045D012C12
:1036F0007CD00124402544552424050040356C70BD
:103700000024050040356C608905890D394C0C4357
:103710000494394C0C43039404000592029300274F
:10372000FF43E068012801D1039800E00498216874
:10373000486005F05DFA226893699906C90F93699C
:10374000DA06D20F029D060006E020688269910623
:10375000C90F8069C206D20F0A4309D1BD42F4D015
:1037600005F046FA801B854234D3002DEDD131E0BF
:103770000295102520688069284015D00096029B8C
:1037800000222021200000F09CFC00282CD1206881
:10379000C56120202168C8610198401C01900198F2
:1037A00005998842BDD315E0029B00960022202196
:1037B000200000F086FC010007D120202268D061A3
:1037C00022004032507000201070481E8041C043DB
:1037D000C00F0CE0200040302021202242704268BF
:1037E0001143416000210170012000E0022007B078
:1037F000F0BD00000028000200200002026891696C
:103800001268436B002B00D1704780B5984701BD0B
:1038100070B501688A690B461B68802464002242E7
:1038200006D01D0604D5456C01262E434664CC61A6
:10383000A1000A4207D01C0605D5446C0825254383
:1038400045640468E16149080A4007D01A0605D5B5
:10385000426C0223134343640268D161416C0B2222
:103860000A4001D000F05EFB70BD4121405C704712
:10387000F8B5040099480D004021615C012901D18F
:103880000220F2BD260040360121317010211700C0
:103890000D420BD00F4209D02068C161706804212D
:1038A00001437160200000F0E8FB78E004210D4244
:1038B00008D0394006D0042085432068406A616AF8
:1038C00008700DE002210D4219D0394017D0206850
:1038D0000021C94332698A420DD1616A0978816247
:1038E000606A401C60623448218D09182185618D11
:1038F0000818608553E03269826231614FE04021EF
:103900002A061BD50F4219D0608D002812D0208DB9
:1039100000280FD1608DFF2806D9FF2020850020C8
:1039200000908B04FF2235E0608D20850020009000
:10393000CB042DE0200000F0F5FA30E00D422ED04F
:1039400039402CD04221C943727828231340282BB8
:1039500001D0F221C9432268126811402268116027
:1039600021680A68F42313430B607178222900D17F
:103970005B48618DFF2906D9FF21218500908023B6
:103980005B04FF2206E0618D2185009080239B046B
:10399000228DD2B2F16889B2200000F002FD202011
:1039A000054205D0384003D02900200000F029F955
:1039B00000203070F2BD0000FFFF000038B50400A9
:1039C000E06A4023E35C012B01D1022032BD2500D7
:1039D000403501232B702023194205D0134003D01A
:1039E000200000F08FF976E0102319422DD01A4202
:1039F0002BD0628D002A18D16A78282A06D15A0560
:103A0000904203D1200000F05BFA64E06978292934
:103A100008D13449884205D02068C361200000F0F5
:103A20002CFB55E02068C36155E02168CB616968D3
:103A300004220A436A60002802D0190588424AD14C
:103A40006968200000F06EFA45E00423194219D09D
:103A5000134017D0618D00290DD02168496A626A30
:103A60001170616A491C61621F49228D52182285BA
:103A7000628D51186185618D00292CD119498842C8
:103A800029D025E00823194205D0134003D0200097
:103A900000F02CF81FE0022319401CD013401AD06C
:103AA000618D00290ED0606A007821688862606AA2
:103AB000401C60620C48618D09186185218D0818D1
:103AC000208508E080214904884201D0002802D1E5
:103AD000200000F053F80020287032BD0020008044
:103AE000002400800000FFFFFFFF0000F8B5030086
:103AF0001C0040341D68607828210140282938D1F5
:103B0000A869C003C10FFE20AA69170C0740AA6864
:103B10009205920DEE683040DE68022E1CD106261A
:103B20003740BC46D7093E40B4450BD1A068401C85
:103B3000A060A068022820D10020A0600826EE61C5
:103B4000207012E02A461268B825AA431D682A6030
:103B500000222270020008E028460068B822904344
:103B60002A461060002020703A00180005F046F840
:103B7000F1BD0820E86100202070F1BD38B5016872
:103B80000A6803004033002400259D70550402D5C7
:103B90000A685A4D03E0120403D50A68584D1540CF
:103BA0000D605978292914D1282128225A70212200
:103BB00002634222D2435D782940282901D0F222B3
:103BC000D24301680D682A400A601C7005F017F89E
:103BD00031BD59782A2913D1282128225A7022224E
:103BE00002634422D2435D782940282901D0F4227F
:103BF000D24301680D682A400A601C7005F000F885
:103C000031BDF8B5040020272068C7612500403584
:103C1000687821280ED14220C0436A7828231340B7
:103C2000282B01D0F220C04322681368184010608E
:103C3000112010E0687822280ED14420C0436A7811
:103C400028231340282B01D0F420C0432268136896
:103C5000184010601220206320684268B04B134067
:103C60004360002666632448E0621020014205D0CC
:103C70002268D0616868042202436A60687860281C
:103C800006D1480704D52068406AC0B20090009869
:103C9000200000F0F2F968686978602901D00028F6
:103CA00004D06968200000F03DF9F1BD6878212852
:103CB0000FD16F702663A87840283046A8702E7008
:103CC00003D1200003F041FDF1BD200004F099FF75
:103CD000F1BD687822280ED16F702663A87840283D
:103CE0003046A8702E7003D1200003F02DFDF1BDE9
:103CF000200004F087FFF1BD0000FFFFFFBFFFFFC2
:103D0000FF7FFFFFF0B583B00400206800680290D9
:103D10000091E06A019025004035687820272168ED
:103D2000CF610026212801D0292807D16878206892
:103D30000168FA229143016021200AE0222801D083
:103D40002A2808D1687820680168FC229143016024
:103D50002220206309E0282807D168786878206845
:103D60000168FE2291430160266320684168BA021F
:103D70000A43426020684168694A0A404260200064
:103D800000F07BF90298400406D520680168AC4A2F
:103D90000A400260A06B08E0029800040AD520687F
:103DA0000168A84A0A400260E06B002802D000685F
:103DB0004068608504200099014012D00099814339
:103DC00000912168496A626A1170616A491C6162E6
:103DD000218D002905D09C4A89182185618D89187B
:103DE0006185618D002902D06968014369601021F5
:103DF000009A0A4033D0029A0A4030D0628D002ADD
:103E00001ED16878282808D101984A05904204D12B
:103E10000099200000F054F821E0687829280CD19E
:103E200001989D4A904208D02068C161200000F0AE
:103E300024F92000FFF7A2FE11E02068C1610EE026
:103E40002268D1616968084368600198002802D03F
:103E5000F904884203D16968200000F063F800206B
:103E6000A8706663686800280BD06968200000F0BD
:103E700059F86878282821D10099200000F020F80E
:103E80001CE0E06A844988420BD02000FFF776FEF0
:103E90008148E0626F7026632E70200004F0B3FE4C
:103EA0000CE0687822286F7026632E7003D1200002
:103EB00004F0A6FE02E0200004F0A1FE03B0F0BD75
:103EC00038B5754AC26200220263030040332024E1
:103ED0005C7000249C7042630424214012D001686D
:103EE000496A456A2970416A491C4162018D00296D
:103EF00008D0554D49190185418D491941855968A9
:103F00000C435C605978597801680C68FE25AC4315
:103F10000C6010210468E1611A7004F074FE31BD78
:103F200000E800FE70B504002500403568780026E2
:103F30000022AA70584AE262002262856A68114330
:103F40006960282803D0292801D02A2813D14620C7
:103F500028216A780A40282A00D0F6206A780A4088
:103F6000282A00D0F6202268136883431360697002
:103F70004A4860631FE06878687820680168FE221C
:103F800091430160200000F078F86878602811D033
:103F900020202021697021688A6902400AD01022FD
:103FA0008B69134004D0CA61696804220A436A60BD
:103FB0002168C8616663206BA16B00291BD01128A2
:103FC00001D0212817D120680168490403D5016870
:103FD0001B4A0A400260A06B04F058FE01282BD057
:103FE0002F48A16B88632E70A06B04F00DFE002893
:103FF00025D0A06B1DE0E16B00291DD0122801D057
:10400000222819D120680168090403D501680D4AE6
:104010000A400260E06B04F039FE01280CD0204811
:10402000E16B88632E70E06B04F0EEFD002806D093
:10403000E06B816B884770BD200000F007F870BD11
:10404000FFBFFFFFFF7FFFFFFFFF000010B5010074
:10405000303100224123C35C602B08D1202341244E
:1040600003550A604021425404F013FE10BD0A605B
:104070004021425403F06AFB10BD00688169890742
:1040800001D500218162012182690A4002D1826941
:1040900011438161704700000000FFFFBD39000837
:1040A000A540000880B5806A816B002901D00022FC
:1040B0008A63C16B002901D000228A63FFF7C6FF23
:1040C00001BDF8B50092002405000F001E0028680D
:1040D00080693840B84201D1012000E000200099F9
:1040E00088422BD1069A3100280000F0DBF8002826
:1040F00010D10020C0438642E9D004F079FD069932
:10410000401A864208D2286880693840B84206D1F1
:10411000012005E00120F2BD002ED8D1F3E70020F8
:1041200000998842D3D128004030202142680A43B8
:1041300042604170002181700470EBE70020F2BD05
:10414000F8B5022604000D00170020688069304091
:1041500025D13A002900200000F0A4F800280DD154
:104160000020C0438542F0D004F042FDC01B8542D0
:1041700006D2206880693040E7D104E00120F2BD1A
:10418000002DE2D1F5E720004030202142680A43AB
:10419000426041700021002282700170EEE7002031
:1041A000F2BDF8B5202504000E00170020688069D4
:1041B000284020D13A003100200000F073F8002898
:1041C00001D00120F2BD04F013FDC01B864204D2D1
:1041D000206880692840E9D102E0002EE6D1F7E7A7
:1041E0002000403041682943416045700021002291
:1041F00082700170E5E70020F2BDFEB500240600E4
:10420000403607000091019215E0706004F0F0FC68
:104210000199401A009981423ED220000BD13868A2
:104220008069054007D1202071680143716070707A
:1042300000203070012404253868806928402ED180
:1042400020002CD1019A0099380000F02BF80028AA
:1042500000D00124396888698006D7D52000D5D1DF
:1042600000208A692A4003D03A8D002A00D0002419
:104270008A69D206C9D51022CA61756020223968C0
:10428000CA6139684B68514C1C404C607270002107
:10429000B17030700124B9E70029CCD1BDE720000E
:1042A00003B0F0BDFEB50600002430688369002528
:1042B00017001022134040D0C261009131E020006D
:1042C00033D100980021C94388422AD004F090FCE1
:1042D000C01B0099814201D3002922D13068416876
:1042E00032004032927883691B040BD58023DB01B6
:1042F000194007D1202A05D041680B43436004F0E0
:1043000077FC0700019620260198006880693040FC
:1043100006D104F06DFCC01B1A28F5D3202501241A
:10432000019E316888698006C9D52800002C01D11A
:104330002022CA6104250543012430688169802256
:104340005200114202D001242543C2619000014273
:1043500005D02A00082515433268D06101244008A1
:10436000014006D0290002250D433168C8610124AF
:1043700001E0200012D03000FFF77FFE3068416876
:10438000124A0A4042603000403041680D434560A7
:10439000202141700021002282700170200003B0B2
:1043A000F0BDF0B4049C00684568660D084F3743C3
:1043B000BD438905890D12040A4313431C43610060
:1043C000490829434160F0BC7047000000E800FE46
:1043D000FF63FF0310B5040004F080FC010020001F
:1043E000C96A884710BDF8B505000C002F69002088
:1043F000C043C01B012801D804F07AFC7F1C0022B6
:104400003900280000F0B2FA002808D02E692800F0
:1044100000F0A4F984553900280000F012FB2800B0
:10442000F2BD10B504008C4204D00023DB4300220F
:1044300004F0D4FA200010BDF8B50E001500316963
:10444000A94201D204F054FC07004C1B9C4200D945
:104450001C0038690021C943091A8C4201D304F0B9
:1044600047FC002C19D000190090002201463800AA
:1044700000F07CFA002810D0300000F008FA45194E
:10448000380000F06BF9220029003B69C01800F0E9
:104490001FFC0099380000F0D4FA3800F2BD70B566
:1044A000040008001500066900F0F1F933002A0045
:1044B0000100200004F021FC70BD38B504000D009F
:1044C00003F0B1FA00220021200000F006F82900D4
:1044D0002000FEF714FC200032BD70B5040015006A
:1044E00000290CD060690F2809D92668002D03D057
:1044F0003100200000F0ECFB300004F033FC0F2012
:10450000606125610020605570BD38B505000C0064
:10451000A5421AD000220121FFF7DFFF60691028B1
:1045200006D22269521C2100280004F023FC03E07B
:104530002068286000202060206928616069686127
:10454000002200212000FFF7C8FF280032BD70B50F
:1045500004000E001500300000F01AF903002A00D4
:104560003100200004F0C9FB70BD0268531C0360D9
:10457000117070471206130A1A43130C1A4300BF36
:10458000094205D083070FD00270401C491EF9D1A3
:10459000704700000022F3E7002205E01206130A2C
:1045A0001A43130C1A4300BF1300103906D330B45A
:1045B0001400150010393CC0FCD230BC490700D3B0
:1045C0000CC000D504C0890002D30280801C0029E1
:1045D00000D5027070472E000CB418B583B00400EB
:1045E0000A0006A8029001940020009002AB01A9E5
:1045F000084878441E3004F0D1FB0021019A117064
:10460000002801D40198001B04B0019910BC03B02C
:10461000084700BF57FFFFFF10B50100264842685A
:104620000B68D4431C400BD044681C4344601A40C0
:104630000A608168002901D1FEF702FB012010BD4C
:10464000002010BDF8B50400EFF3108572B6207994
:10465000002804D00020207185F310882AE0174F2D
:104660001748006880003858818001261448016886
:104670000120884021680143216011494968814334
:104680000F4841608068002802D10D48FEF7D8FA33
:104690000B48006886402168314205D0B143216053
:1046A00085F310880020F2BD0021800038588180F9
:1046B00085F310880120F2BDD40A0020B00A002042
:1046C000D40A0020F8B504000D00280000F060F8BE
:1046D00006002900200004F06FF9002809D020000E
:1046E00000F03CF833002A1A21002000FFF7A4FE56
:1046F000F2BD20690021C943091A8E4201D304F09A
:10470000F7FA002E14D0871900223900200000F09B
:104710002DF900280CD0200000F020F832002900EC
:104720002369C01800F0D4FA3900200000F089F99C
:104730002000F2BD38B504000D000020206160614A
:10474000002200212000FFF7C8FE0023DB430022E7
:104750002900200004F042F9200032BD41691029EF
:1047600000D30068704710B5040004F0B7FA0100E8
:1047700020000969884710BD10B5040020698842EF
:1047800001D204F0B5FA200000F05BF9200010BD62
:10479000431C0178401C0942FBD1C01A7047FEB58A
:1047A00004000F001500089E194604F005F90028C2
:1047B0000DD02000FFF7D2FF01960299081A009051
:1047C00023002A003900200005F0A7FA54E02069F0
:1047D000B84201D204F08CFAC11BA94200D20D00EC
:1047E000401B0021C943891B884201D304F080FA91
:1047F000C01B0190AE4210D22000FFF7AFFF0100B6
:104800006069102801D3206800E02000019AC919CE
:104810004919C019801904F0ADFA280030432AD094
:1048200020698019401B009000220146200000F002
:104830009DF800281FD0B5420ED26069102802D31F
:104840002168080001E021002000019AC9194919D6
:10485000C019801904F08EFA6069102801D320680D
:1048600000E0200032000299C01900F031FA0099EE
:10487000200000F0E6F8200003B0F0BD10B5040001
:1048800004F02CFA01002000096A884710BD416934
:10489000102900D300687047F8B50F000169B942CC
:1048A00001D204F025FA1400C91BA14200D20C0069
:1048B000069D00932600AC4200D92E00FFF7E7FFCB
:1048C00032000099C01905F007FB002806D1AC4260
:1048D00002D20020C043F2BD00D00120F2BD38B5A5
:1048E00004000D002800FFF753FF00902B00226901
:1048F00000212000FFF7D0FF401E8041C00F32BDD5
:10490000BAB5EFF3108772B6174D04000EE02968B0
:104910000120884021680143216069688143696002
:10492000A868002802D12800FEF78AF9207A4142BF
:10493000C9B2E029EBD020280FD000980078A17AE6
:104940006118C872A07A401CA072207A401C2072A4
:10495000A07A202801D10020A072201DFFF75CFE64
:1049600087F31088B3BD00BFD40A0020FEB50D0048
:104970000021C9438D4201D104F0BAF904006769EE
:10498000AF4245D22069019000900F262E438E42FF
:1049900001D12E0011E03000032100F075F87908F4
:1049A00088420AD2606940080121C943091AB94204
:1049B00001D33E1801E00126F643701C01D1002707
:1049C00002E005F099FA07000098002809D0606914
:1049D000102801D3216800E02100009A380000F07F
:1049E00077F9002201212000FFF777FD2760102EC4
:1049F00001D3384600E02000666100992161002162
:104A0000019A8154681E8041C043C00F03B0F0BDBD
:104A1000002A0BD0102D09D220692A00854200D926
:104A2000020001212000FFF758FDEBE7002DE9D13E
:104A3000102F01D3216800E02100002020610870C0
:104A4000E4E74269102A01D3026800E00200016134
:104A5000002050547047F446002804D4494200F026
:104A600013F8404260474042002905D45FD000F06F
:104A70000BF8404249426047494200F005F849427C
:104A8000604703460B43E6D40022030A8B420BD255
:104A900003098B4219D243088B422ED2411A00D20D
:104AA0000146524110467047FF2209023FD01206CC
:104AB0008B4205D3121209028B4201D31212090252
:104AC00003098B4219D300E0090AC3098B4201D3C1
:104AD000CB01C01A524183098B4201D38B01C01A0A
:104AE000524143098B4201D34B01C01A5241030981
:104AF0008B4201D30B01C01A5241C3088B4201D330
:104B0000CB00C01A524183088B4201D38B00C01ADC
:104B1000524143088B4201D34B00C01A5241884294
:104B200000D3401A5241CFD201461046704708B513
:104B300005F0F6F908BD4300FCB587B00C00150080
:104B4000002B01D0002119600390064600E0761C7E
:104B50003078FFF793FE0028F9D1300001782D2935
:104B600001D02B2903D16A461170401C02E02B2191
:104B70006A4611700194002D03D4012D01D0252D1A
:104B800004DB002C55D00398206052E0002D0ADD94
:104B9000102D16D10178302913D1417820220A43F3
:104BA000782A0ED10AE00178302901D00A2508E0E0
:104BB000417820220A43782A02D11025801C00E087
:104BC0000825069000E0401C01783029FBD0002425
:104BD00005902B4A7A44A83228326B465A700295C7
:104BE000049F05000494264E7E44943608E0049405
:104BF00069464978471AFFB202984443E4196D1C8C
:104C0000287805F08EF9029A01003000283005F06E
:104C100091F90028EBD1029938002F002500049C5F
:104C2000069ABA4207D10198002802D00398019948
:104C30000860002022E0059ABA1A735CD21A002A92
:104C400011D405DC281A03D3FFF71EFFA0420AD0B7
:104C500005F085F90898002802D00120089908601D
:104C60000025ED4305E0684600782D2801D1684213
:104C700005000198002800D00760280009B0F0BDA9
:104C8000104A010080B50023FFF756FF02BD80B532
:104C9000FFE70A220021FFF7F5FF02BD70B4103ACA
:104CA00003D378C9103A78C0FBD2530701D318C98F
:104CB00018C001D508C908C0D20704D30B880380E7
:104CC000891C801C002A01D50B78037070BC7047CA
:104CD0008B0701D18307E1D0124205D00B78491C24
:104CE0000370401C521EF9D17047704770B5050023
:104CF000404E00228021C900300005F0FDF900225D
:104D00000421300005F0F8F9002280214900A0209C
:104D1000C00505F0F1F90024374844700122411C18
:104D2000032005F063FAD02040002D186C61AC61BF
:104D3000324804600020324908600021314A03C231
:104D40002874687430490870304908703049087018
:104D50003049087030490870E870304908703049AF
:104D6000087030490870304908703049087030497F
:104D70000870304908706871A8712F490870A870D0
:104D8000E87228732D4908702D49087068732870DF
:104D900068702C490870A8732B490870A8722B49B9
:104DA00008702B4804702B48006802F099FD010040
:104DB000294805F033FA2949086029480178E12299
:104DC00012015143427813019A1A9200891880788F
:104DD0000818E8610122D103300005F08DF90120A7
:104DE000204A107020490870204800682049086057
:104DF00070BD000000040050F05E0020EC5F002059
:104E0000E45F0020605F0020CA600020BF600020D7
:104E1000AE600020AC600020AD600020CE600020BD
:104E2000CF600020CD600020B0600020B160002085
:104E3000C7600020B2600020B3600020D060002076
:104E4000D2600020B7600020B9600020C16000205F
:104E5000C0600020BC5F002000007A44E85F0020B2
:104E60003C5E0020BE600020DC600020805F0020EF
:104E7000F05F0020F8B50400CA4805F03AFA0028AF
:104E80002BD0C9480078002800D0C9E2200002F0E9
:104E9000F1F80024C5490C700120C5490870C54DC2
:104EA00000228102280005F027F9002204212800B1
:104EB00005F022F9002280214900A020C00505F05C
:104EC0001BF9BD4844700122411C032005F08EF9F6
:104ED000BA48006805F0DFFAF1BDD24805F009FADA
:104EE00000281DD0D0480078002800D098E2FF208C
:104EF000A2302018C178002909D18179002900D079
:104F00008EE20121C170200001F044FFF1BD0021BB
:104F10000022C27081710421A64805F0EDF8F1BDB0
:104F2000C24805F0E6F9002869D0BF48007800289B
:104F300000D075E29C490878002840D1BC48007830
:104F4000002832D0022830D000D369E2D748007858
:104F500000280ED0D648007800280AD1EFF310813F
:104F600072B6D448006981F31088E221490060508C
:104F7000F1BD012008700020FF21A23161184870A6
:104F80008D48417802220A4342700122411C0320CD
:104F900005F02CF9200001F009FDEFF3108172B645
:104FA000C448006981F31088DFE7C3480078401ED9
:104FB000012800D934E2200000F09CFAF1BD002065
:104FC0000870FF21A23161180870012048707A48EA
:104FD0004178FD220A4042700122411C032005F065
:104FE00005F9200001F024FDEFF3108072B6B149FD
:104FF000096980F31088E22040002150F1BDCB48C0
:1050000005F077F900286AD0EFF3108072B6A9494D
:10501000096980F31088E22040002150CC480078D4
:10502000012800D1FCE180480078002800D0F7E199
:105030007F480178012900D1F2E19F490A78012ACD
:1050400000D0EDE1C34A1268002A00D0E8E1974A97
:105050001278002A00D0E3E102220A700025FF2224
:10506000A232A218D5730078022801D1BA4800E014
:10507000BA480068BA490860200001F033F92000FE
:1050800001F0F8FF49480570012549490D704A4C67
:1050900060782021014361700122611C032005F02A
:1050A000A5F860781021014361700122611C032082
:1050B00005F09CF86078FB21014061700122611CC1
:1050C000032005F093F86078082101436170012204
:1050D000611C032005F08AF8C5480570F1BDD14870
:1050E00005F007F900286BD0EFF3108072B6714914
:1050F000096980F31088E22040002150944800782C
:10510000012800D18CE148480078002800D087E1D0
:1051100047480078012800D182E1674800780228DA
:1051200000D07DE18B4F3868002803D0BE4800785E
:10513000012804D12000216889688847F1BDAC4E60
:1051400030780838022800D86AE11B4D68782021A1
:10515000014369700122691C032005F047F8687853
:105160001021014369700122691C032005F03EF8FB
:105170006878FB21014069700122691C032005F059
:1051800035F868780821014369700122691C032001
:1051900005F02CF8002038606D490870012030704F
:1051A000D1E000BFF80A0020B1600020DB600020E1
:1051B000DA60002000040050F05E0020DC5F002078
:1051C0009A4805F096F8002834D0EFF3108072B6B4
:1051D0003849096980F31088E220400021501248C4
:1051E0000078002800D01BE111480078012800D188
:1051F00016E131480078022800D011E155480068D6
:10520000002800DC0CE152490878002800D007E1B2
:10521000012008700721764A1170854A117085496E
:105220000870F1BD100B0020AE600020A00B002024
:10523000CA600020804805F05CF800283ED0EFF3FB
:10524000108072B61B49096980F31088E220400083
:1052500021503F480078012800D1E1E077480078EC
:10526000002800D0DCE0A04D2878012800D1D7E04C
:1052700011480078022800D0D2E09C4841780422EE
:105280000A4342700122411C032004F0AFFF314861
:1052900001682A78002A02D0022A02D04DE02F4A63
:1052A00000E02D4A1268891847E000BFB560002071
:1052B000B3600020D40A0020DC6000208C4805F098
:1052C00018F800284ED0EFF3108072B6A94909698A
:1052D00080F31088E220400021501D48007801280A
:1052E00000D19DE055480078002800D098E07E4D20
:1052F0002878012800D193E09F480078022800D048
:105300008EE07A48417804220A4342700122411C0F
:10531000032004F06BFF0F4801682A78002A02D0AE
:10532000022A05D009E00D4A03E000BFB80B0020B7
:10533000094A126893009A188918904A12688A429A
:1053400000D211000160200000F0CCFFF1BD00BFD1
:10535000B2600020EC5F0020885F0020845F0020A6
:10536000F05F0020864804F0C4FF002821D0EFF34E
:10537000108072B67F49096980F31088E2204000EE
:1053800021502E48007800284AD15748007800283C
:1053900001D0022844D178480078012805D002289D
:1053A0003ED17848007801283AD1200000F048F832
:1053B000F1BD754D280004F09CFF00281AD07348F9
:1053C000007800282CD11320694608707048FFF738
:1053D00097FAEFF3108472B66E4D2800FFF71CF9B0
:1053E000002801D10120287184F31088F1BD00BF8D
:1053F000DE600020280004F097FF002810D06348EA
:10540000017800290CD101210170EFF3108072B6F0
:105410005849096980F31088E22040002018816211
:10542000F1BD00BFD00B0020CE600020E80B0020B3
:10543000DF600020B8600020000C0020AE6000207B
:10544000F8B5060054480068012841DBAC480078F4
:1054500000283DD1254CA020C00580214900A94F3E
:105460003A78002A1FD10125A74B1D703D70D0232B
:105470005B00F554A54A1278A54B1A70012204F07E
:105480003BFE6078054365700122611C032004F037
:10549000ADFEEFF3108072B63649096980F31088CB
:1054A0009C48016014E0002204F026FE6078FE2192
:1054B000014061700122611C032004F097FE00206E
:1054C000387091490870D0214900711808704870EF
:1054D000EFF3108072B62749096980F31088D02055
:1054E000400030184162F1BDCA600020F05E00202B
:1054F000180C0020F8B504002748006801282EDBAE
:105500008048007800282AD101257D490D70FF20B0
:10551000A23027183D7000267E70200001F0AAFD01
:105520007D4806707D490D7013480078012809D127
:105530007B480078012805D1B878002802D1BD70D9
:10554000784805707848417802220A434270012267
:10555000411C032004F04AFE200001F027FAEFF37B
:10556000108072B67149096980F31088E22040000A
:105570002150F1BDD40A0020DC600020F45F00203F
:10558000300C0020B7600020480C0020C0600020D4
:10559000745D0020505F0020EC5F002010B564496E
:1055A000097808295BD0092900D17EE06149097892
:1055B000002900D0A3E0FF21AC31441858490978F4
:1055C000002920D1EC2149004118584A2378002BAA
:1055D00011D1EFF3108072B6126980F310880A605F
:1055E0005148002141700122411C032004F0FEFDBE
:1055F0000120207010BDEFF3108372B6126983F39F
:105600001088096874E0002020704B48007800285A
:1056100025D1454C60782021014361700122611C35
:10562000032004F0E3FD6078102101436170012242
:10563000611C032004F0DAFD6078082101436170E9
:105640000122611C032004F0D1FD60783B49096808
:10565000012902DB0421014320E0FB211DE0324C43
:1056600060782021014361700122611C032004F055
:10567000BDFD6078EF21014061700122611C0320B3
:1056800004F0B4FD6078FB21014061700122611CCF
:10569000032004F0ABFD6078F72101406170012226
:1056A000611C032004F0A2FD10BDEC21490041184B
:1056B000FF22AC3284181D4A6378002B11D1EFF31E
:1056C000108072B6126980F310884A601648002173
:1056D00041700122411C032004F088FD012060700C
:1056E00010BDEFF3108372B6126983F31088496816
:1056F000511A824A914202D301688968884710BDD5
:10570000B1600020C7600020C6600020A2600020B9
:10571000C8600020E05F0020DB600020DA6000202D
:10572000CB600020AF600020F05E0020D40A002093
:10573000DE600020D2600020B2600020EC5F00201C
:10574000FEB504006E486F490978002934D101780C
:10575000C91F032930D9FF21AE316118CA7813005F
:105760000CD0042A0ED0082A10D00C2A12D0102AED
:1057700014D0142A16D0182A18D01BE00122027067
:10578000CA7817E002220270CA7813E0032202707E
:10579000CA780FE004220270CA780BE0052202707A
:1057A000CA7807E006220270CA7803E0012202707C
:1057B000002200E0521CCA700078401E092800D95F
:1057C0009AE002A1095C49008F4400BF050E172032
:1057D00029323B44848E8E488E490978002901D1B4
:1057E0008D4987E08D4985E089488A4909780029F3
:1057F00001D189497EE08A497CE08548854909785C
:10580000002901D1844975E0864973E080488149C7
:105810000978002901D180496CE083496AE07C481D
:105820007C490978002901D17B4963E07F4961E027
:10583000774878490978002901D177495AE07C49AD
:1058400058E0734873490978002901D1724951E041
:1058500078494FE0F420400026183B382718764D51
:10586000387800280DD17549694804F07DFEEFF3C2
:10587000108072B6296980F3108831600120387079
:1058800020E0EFF3108072B6296980F31088306849
:10589000081A1A49884215D36948006802F020F8AE
:1058A00005006848008802F00BF80100280004F0A9
:1058B000B5FC02F021F800900191634A6349544815
:1058C00004F052FE6248026862480168200000F05D
:1058D00025FB11E04E4C6049200004F045FE5F4975
:1058E000200004F083FE07E04A480078002803D136
:1058F0004949474804F038FE03B0F0BDB80B00003A
:10590000DE600020D2600020F8B50600FF20B23033
:10591000305C010006D0042811D009283AD00D28A7
:1059200045D046E03A4C4E49200004F01DFE4D495A
:10593000200004F05BFEFF20B230305C39E0344FD1
:105940004949380004F010FE7620305C6946087042
:105950007720315C484204F0AFFE02000B000020CB
:10596000424904F0B3FE04000D0041480188684636
:105970000078484304F0A0FE22002B0005F01CFA3A
:1059800002000B003B49380004F030FEFF20B2302B
:10599000305C0EE01E4C3849200004F0E5FD37492C
:1059A000200004F023FEFF20B230305C01E0002034
:1059B00000E0401CFF21B2317054EC204000301850
:1059C0001D492F4C2278002A11D1EFF3108272B6B4
:1059D000096982F3108801602A4800214170012280
:1059E000411C032004F002FC01202070F1BDEFF304
:1059F000108272B6096982F310880068081A224979
:105A00008842F3D33000316889688847F1BD0000CF
:105A100024590020CB6000205C8E0108D48E010840
:105A2000E88E0108FC8E0108108F0108248F010800
:105A3000388F01084C8F0108D40A0020608F0108BC
:105A4000845F002094600020488E0108108E0108B9
:105A5000EC5F0020E45F0020748F0108888F01084C
:105A60009C8F0108B08F0108C48F010800002440FA
:105A700096600020D88F0108EC8F01080090010883
:105A8000D1600020F05E002010270000F8B58AB039
:105A9000B0490978002907D0AF4CB049200004F084
:105AA00063FDAF49200005E20890D0214900441869
:105AB0002078012802D1AB4841780FE0A078012876
:105AC00014D1BF480078002810D1A6484178BD4ABB
:105AD0001278012A02D102220A4301E0FD220A4083
